{
  "address": "0xf0d1Af59BBCf917428F8c9d0A43b7b76A6EC46f3",
  "abi": [
    {
      "anonymous": false,
      "inputs": [
        {
          "indexed": false,
          "internalType": "address",
          "name": "addr",
          "type": "address"
        },
        {
          "indexed": false,
          "internalType": "bytes32",
          "name": "bytecodeHash",
          "type": "bytes32"
        }
      ],
      "name": "Deployed",
      "type": "event"
    },
    {
      "constant": false,
      "inputs": [
        {
          "internalType": "bytes",
          "name": "code",
          "type": "bytes"
        },
        {
          "internalType": "uint256",
          "name": "salt",
          "type": "uint256"
        }
      ],
      "name": "deploy",
      "outputs": [],
      "payable": false,
      "stateMutability": "nonpayable",
      "type": "function"
    }
  ],
  "transactionHash": "0xaef38766400b099bfa2d3eb745d8d9aac4f7f1c8a543d4e66ce8c0d5c0efab35",
  "args": [],
  "numDeployments": 1,
  "solcInputHash": "ea414b7460305efe7d4fe688db4b677d",
  "bytecode": "0x608060405234801561001057600080fd5b50610185806100206000396000f3fe608060405234801561001057600080fd5b506004361061002b5760003560e01c80639c4ae2d014610030575b600080fd5b6100d86004803603604081101561004657600080fd5b81019060208101813564010000000081111561006157600080fd5b82018360208201111561007357600080fd5b8035906020019184600183028401116401000000008311171561009557600080fd5b91908080601f01602080910402602001604051908101604052809392919081815260200183838082843760009201919091525092955050913592506100da915050565b005b6000818351602085016000f59050803b6100f357600080fd5b7f94bfd9af14ef450884c8a7ddb5734e2e1e14e70a1c84f0801cc5a29e34d2642881848051906020012060405180836001600160a01b03166001600160a01b031681526020018281526020019250505060405180910390a150505056fea265627a7a7231582084bf3d0e4b615f889e90883aac021e75558fabdfe729032ad9e079743d29811664736f6c63430005110032",
  "devdoc": {
    "methods": {}
  },
  "userdoc": {
    "methods": {}
  },
  "storageLayout": {
    "storage": [],
    "types": null
  }
}