{
  "address": "0xDe7Fc53C3122Fe985358C0e86C5C959177330246",
  "abi": [
    {
      "anonymous": false,
      "inputs": [
        {
          "indexed": true,
          "internalType": "bytes32",
          "name": "proposalId",
          "type": "bytes32"
        },
        {
          "indexed": false,
          "internalType": "uint256",
          "name": "newState",
          "type": "uint256"
        }
      ],
      "name": "ProposalStateChanged",
      "type": "event"
    },
    {
      "anonymous": false,
      "inputs": [
        {
          "indexed": false,
          "internalType": "address",
          "name": "voter",
          "type": "address"
        },
        {
          "indexed": false,
          "internalType": "uint256",
          "name": "value",
          "type": "uint256"
        }
      ],
      "name": "TokensLocked",
      "type": "event"
    },
    {
      "anonymous": false,
      "inputs": [
        {
          "indexed": false,
          "internalType": "address",
          "name": "voter",
          "type": "address"
        },
        {
          "indexed": false,
          "internalType": "uint256",
          "name": "value",
          "type": "uint256"
        }
      ],
      "name": "TokensWithdrawn",
      "type": "event"
    },
    {
      "anonymous": false,
      "inputs": [
        {
          "indexed": true,
          "internalType": "bytes32",
          "name": "proposalId",
          "type": "bytes32"
        },
        {
          "indexed": true,
          "internalType": "uint256",
          "name": "option",
          "type": "uint256"
        },
        {
          "indexed": false,
          "internalType": "address",
          "name": "voter",
          "type": "address"
        },
        {
          "indexed": false,
          "internalType": "uint256",
          "name": "votingPower",
          "type": "uint256"
        }
      ],
      "name": "VoteAdded",
      "type": "event"
    },
    {
      "stateMutability": "payable",
      "type": "fallback"
    },
    {
      "inputs": [],
      "name": "MAX_OPTIONS_PER_PROPOSAL",
      "outputs": [
        {
          "internalType": "uint8",
          "name": "",
          "type": "uint8"
        }
      ],
      "stateMutability": "view",
      "type": "function"
    },
    {
      "inputs": [],
      "name": "activeProposalsNow",
      "outputs": [
        {
          "internalType": "uint256",
          "name": "",
          "type": "uint256"
        }
      ],
      "stateMutability": "view",
      "type": "function"
    },
    {
      "inputs": [
        {
          "internalType": "address[]",
          "name": "to",
          "type": "address[]"
        },
        {
          "internalType": "bytes[]",
          "name": "data",
          "type": "bytes[]"
        },
        {
          "internalType": "uint256[]",
          "name": "value",
          "type": "uint256[]"
        },
        {
          "internalType": "uint256",
          "name": "totalOptions",
          "type": "uint256"
        },
        {
          "internalType": "string",
          "name": "title",
          "type": "string"
        },
        {
          "internalType": "string",
          "name": "contentHash",
          "type": "string"
        }
      ],
      "name": "createProposal",
      "outputs": [
        {
          "internalType": "bytes32",
          "name": "",
          "type": "bytes32"
        }
      ],
      "stateMutability": "nonpayable",
      "type": "function"
    },
    {
      "inputs": [
        {
          "internalType": "bytes32",
          "name": "proposalId",
          "type": "bytes32"
        }
      ],
      "name": "endProposal",
      "outputs": [],
      "stateMutability": "nonpayable",
      "type": "function"
    },
    {
      "inputs": [],
      "name": "getActiveProposalsNow",
      "outputs": [
        {
          "internalType": "uint256",
          "name": "",
          "type": "uint256"
        }
      ],
      "stateMutability": "view",
      "type": "function"
    },
    {
      "inputs": [],
      "name": "getLockTime",
      "outputs": [
        {
          "internalType": "uint256",
          "name": "",
          "type": "uint256"
        }
      ],
      "stateMutability": "view",
      "type": "function"
    },
    {
      "inputs": [],
      "name": "getMaxActiveProposals",
      "outputs": [
        {
          "internalType": "uint256",
          "name": "",
          "type": "uint256"
        }
      ],
      "stateMutability": "view",
      "type": "function"
    },
    {
      "inputs": [],
      "name": "getMaxGasPrice",
      "outputs": [
        {
          "internalType": "uint256",
          "name": "",
          "type": "uint256"
        }
      ],
      "stateMutability": "view",
      "type": "function"
    },
    {
      "inputs": [],
      "name": "getMinimumMembersForProposalCreation",
      "outputs": [
        {
          "internalType": "uint256",
          "name": "",
          "type": "uint256"
        }
      ],
      "stateMutability": "view",
      "type": "function"
    },
    {
      "inputs": [],
      "name": "getMinimumTokensLockedForProposalCreation",
      "outputs": [
        {
          "internalType": "uint256",
          "name": "",
          "type": "uint256"
        }
      ],
      "stateMutability": "view",
      "type": "function"
    },
    {
      "inputs": [],
      "name": "getName",
      "outputs": [
        {
          "internalType": "string",
          "name": "",
          "type": "string"
        }
      ],
      "stateMutability": "view",
      "type": "function"
    },
    {
      "inputs": [],
      "name": "getPermissionRegistry",
      "outputs": [
        {
          "internalType": "address",
          "name": "",
          "type": "address"
        }
      ],
      "stateMutability": "view",
      "type": "function"
    },
    {
      "inputs": [
        {
          "internalType": "bytes32",
          "name": "proposalId",
          "type": "bytes32"
        }
      ],
      "name": "getProposal",
      "outputs": [
        {
          "components": [
            {
              "internalType": "address",
              "name": "creator",
              "type": "address"
            },
            {
              "internalType": "uint256",
              "name": "startTime",
              "type": "uint256"
            },
            {
              "internalType": "uint256",
              "name": "endTime",
              "type": "uint256"
            },
            {
              "internalType": "address[]",
              "name": "to",
              "type": "address[]"
            },
            {
              "internalType": "bytes[]",
              "name": "data",
              "type": "bytes[]"
            },
            {
              "internalType": "uint256[]",
              "name": "value",
              "type": "uint256[]"
            },
            {
              "internalType": "string",
              "name": "title",
              "type": "string"
            },
            {
              "internalType": "string",
              "name": "contentHash",
              "type": "string"
            },
            {
              "internalType": "enum BaseERC20Guild.ProposalState",
              "name": "state",
              "type": "uint8"
            },
            {
              "internalType": "uint256[]",
              "name": "totalVotes",
              "type": "uint256[]"
            }
          ],
          "internalType": "struct BaseERC20Guild.Proposal",
          "name": "",
          "type": "tuple"
        }
      ],
      "stateMutability": "view",
      "type": "function"
    },
    {
      "inputs": [
        {
          "internalType": "bytes32",
          "name": "proposalId",
          "type": "bytes32"
        }
      ],
      "name": "getProposalSnapshotId",
      "outputs": [
        {
          "internalType": "uint256",
          "name": "",
          "type": "uint256"
        }
      ],
      "stateMutability": "view",
      "type": "function"
    },
    {
      "inputs": [],
      "name": "getProposalTime",
      "outputs": [
        {
          "internalType": "uint256",
          "name": "",
          "type": "uint256"
        }
      ],
      "stateMutability": "view",
      "type": "function"
    },
    {
      "inputs": [
        {
          "internalType": "bytes32",
          "name": "proposalId",
          "type": "bytes32"
        },
        {
          "internalType": "address",
          "name": "voter",
          "type": "address"
        }
      ],
      "name": "getProposalVotesOfVoter",
      "outputs": [
        {
          "internalType": "uint256",
          "name": "option",
          "type": "uint256"
        },
        {
          "internalType": "uint256",
          "name": "votingPower",
          "type": "uint256"
        }
      ],
      "stateMutability": "view",
      "type": "function"
    },
    {
      "inputs": [],
      "name": "getProposalsIds",
      "outputs": [
        {
          "internalType": "bytes32[]",
          "name": "",
          "type": "bytes32[]"
        }
      ],
      "stateMutability": "view",
      "type": "function"
    },
    {
      "inputs": [],
      "name": "getProposalsIdsLength",
      "outputs": [
        {
          "internalType": "uint256",
          "name": "",
          "type": "uint256"
        }
      ],
      "stateMutability": "view",
      "type": "function"
    },
    {
      "inputs": [
        {
          "internalType": "bytes32",
          "name": "signedVoteHash",
          "type": "bytes32"
        }
      ],
      "name": "getSignedVote",
      "outputs": [
        {
          "internalType": "bool",
          "name": "",
          "type": "bool"
        }
      ],
      "stateMutability": "view",
      "type": "function"
    },
    {
      "inputs": [
        {
          "internalType": "bytes32",
          "name": "proposalId",
          "type": "bytes32"
        }
      ],
      "name": "getSnapshotVotingPowerForProposalExecution",
      "outputs": [
        {
          "internalType": "uint256",
          "name": "",
          "type": "uint256"
        }
      ],
      "stateMutability": "view",
      "type": "function"
    },
    {
      "inputs": [],
      "name": "getTimeForExecution",
      "outputs": [
        {
          "internalType": "uint256",
          "name": "",
          "type": "uint256"
        }
      ],
      "stateMutability": "view",
      "type": "function"
    },
    {
      "inputs": [],
      "name": "getToken",
      "outputs": [
        {
          "internalType": "address",
          "name": "",
          "type": "address"
        }
      ],
      "stateMutability": "view",
      "type": "function"
    },
    {
      "inputs": [],
      "name": "getTokenVault",
      "outputs": [
        {
          "internalType": "address",
          "name": "",
          "type": "address"
        }
      ],
      "stateMutability": "view",
      "type": "function"
    },
    {
      "inputs": [],
      "name": "getTotalLocked",
      "outputs": [
        {
          "internalType": "uint256",
          "name": "",
          "type": "uint256"
        }
      ],
      "stateMutability": "view",
      "type": "function"
    },
    {
      "inputs": [],
      "name": "getTotalMembers",
      "outputs": [
        {
          "internalType": "uint256",
          "name": "",
          "type": "uint256"
        }
      ],
      "stateMutability": "view",
      "type": "function"
    },
    {
      "inputs": [],
      "name": "getTotalProposals",
      "outputs": [
        {
          "internalType": "uint256",
          "name": "",
          "type": "uint256"
        }
      ],
      "stateMutability": "view",
      "type": "function"
    },
    {
      "inputs": [],
      "name": "getVoteGas",
      "outputs": [
        {
          "internalType": "uint256",
          "name": "",
          "type": "uint256"
        }
      ],
      "stateMutability": "view",
      "type": "function"
    },
    {
      "inputs": [
        {
          "internalType": "address",
          "name": "voter",
          "type": "address"
        }
      ],
      "name": "getVoterLockTimestamp",
      "outputs": [
        {
          "internalType": "uint256",
          "name": "",
          "type": "uint256"
        }
      ],
      "stateMutability": "view",
      "type": "function"
    },
    {
      "inputs": [],
      "name": "getVotingPowerForProposalCreation",
      "outputs": [
        {
          "internalType": "uint256",
          "name": "",
          "type": "uint256"
        }
      ],
      "stateMutability": "view",
      "type": "function"
    },
    {
      "inputs": [],
      "name": "getVotingPowerForProposalExecution",
      "outputs": [
        {
          "internalType": "uint256",
          "name": "",
          "type": "uint256"
        }
      ],
      "stateMutability": "view",
      "type": "function"
    },
    {
      "inputs": [
        {
          "internalType": "address",
          "name": "voter",
          "type": "address"
        },
        {
          "internalType": "bytes32",
          "name": "proposalId",
          "type": "bytes32"
        },
        {
          "internalType": "uint256",
          "name": "option",
          "type": "uint256"
        },
        {
          "internalType": "uint256",
          "name": "votingPower",
          "type": "uint256"
        }
      ],
      "name": "hashVote",
      "outputs": [
        {
          "internalType": "bytes32",
          "name": "",
          "type": "bytes32"
        }
      ],
      "stateMutability": "pure",
      "type": "function"
    },
    {
      "inputs": [
        {
          "internalType": "address",
          "name": "_token",
          "type": "address"
        },
        {
          "internalType": "uint256",
          "name": "_proposalTime",
          "type": "uint256"
        },
        {
          "internalType": "uint256",
          "name": "_timeForExecution",
          "type": "uint256"
        },
        {
          "internalType": "uint256",
          "name": "_votingPowerPercentageForProposalExecution",
          "type": "uint256"
        },
        {
          "internalType": "uint256",
          "name": "_votingPowerPercentageForProposalCreation",
          "type": "uint256"
        },
        {
          "internalType": "string",
          "name": "_name",
          "type": "string"
        },
        {
          "internalType": "uint256",
          "name": "_voteGas",
          "type": "uint256"
        },
        {
          "internalType": "uint256",
          "name": "_maxGasPrice",
          "type": "uint256"
        },
        {
          "internalType": "uint256",
          "name": "_maxActiveProposals",
          "type": "uint256"
        },
        {
          "internalType": "uint256",
          "name": "_lockTime",
          "type": "uint256"
        },
        {
          "internalType": "address",
          "name": "_permissionRegistry",
          "type": "address"
        }
      ],
      "name": "initialize",
      "outputs": [],
      "stateMutability": "nonpayable",
      "type": "function"
    },
    {
      "inputs": [],
      "name": "lockTime",
      "outputs": [
        {
          "internalType": "uint256",
          "name": "",
          "type": "uint256"
        }
      ],
      "stateMutability": "view",
      "type": "function"
    },
    {
      "inputs": [
        {
          "internalType": "uint256",
          "name": "",
          "type": "uint256"
        }
      ],
      "name": "lockTokens",
      "outputs": [],
      "stateMutability": "nonpayable",
      "type": "function"
    },
    {
      "inputs": [],
      "name": "maxActiveProposals",
      "outputs": [
        {
          "internalType": "uint256",
          "name": "",
          "type": "uint256"
        }
      ],
      "stateMutability": "view",
      "type": "function"
    },
    {
      "inputs": [],
      "name": "maxGasPrice",
      "outputs": [
        {
          "internalType": "uint256",
          "name": "",
          "type": "uint256"
        }
      ],
      "stateMutability": "view",
      "type": "function"
    },
    {
      "inputs": [],
      "name": "minimumMembersForProposalCreation",
      "outputs": [
        {
          "internalType": "uint256",
          "name": "",
          "type": "uint256"
        }
      ],
      "stateMutability": "view",
      "type": "function"
    },
    {
      "inputs": [],
      "name": "minimumTokensLockedForProposalCreation",
      "outputs": [
        {
          "internalType": "uint256",
          "name": "",
          "type": "uint256"
        }
      ],
      "stateMutability": "view",
      "type": "function"
    },
    {
      "inputs": [],
      "name": "name",
      "outputs": [
        {
          "internalType": "string",
          "name": "",
          "type": "string"
        }
      ],
      "stateMutability": "view",
      "type": "function"
    },
    {
      "inputs": [],
      "name": "proposalTime",
      "outputs": [
        {
          "internalType": "uint256",
          "name": "",
          "type": "uint256"
        }
      ],
      "stateMutability": "view",
      "type": "function"
    },
    {
      "inputs": [
        {
          "internalType": "bytes32",
          "name": "",
          "type": "bytes32"
        },
        {
          "internalType": "address",
          "name": "",
          "type": "address"
        }
      ],
      "name": "proposalVotes",
      "outputs": [
        {
          "internalType": "uint256",
          "name": "option",
          "type": "uint256"
        },
        {
          "internalType": "uint256",
          "name": "votingPower",
          "type": "uint256"
        }
      ],
      "stateMutability": "view",
      "type": "function"
    },
    {
      "inputs": [
        {
          "internalType": "bytes32",
          "name": "",
          "type": "bytes32"
        }
      ],
      "name": "proposals",
      "outputs": [
        {
          "internalType": "address",
          "name": "creator",
          "type": "address"
        },
        {
          "internalType": "uint256",
          "name": "startTime",
          "type": "uint256"
        },
        {
          "internalType": "uint256",
          "name": "endTime",
          "type": "uint256"
        },
        {
          "internalType": "string",
          "name": "title",
          "type": "string"
        },
        {
          "internalType": "string",
          "name": "contentHash",
          "type": "string"
        },
        {
          "internalType": "enum BaseERC20Guild.ProposalState",
          "name": "state",
          "type": "uint8"
        }
      ],
      "stateMutability": "view",
      "type": "function"
    },
    {
      "inputs": [
        {
          "internalType": "uint256",
          "name": "",
          "type": "uint256"
        }
      ],
      "name": "proposalsIds",
      "outputs": [
        {
          "internalType": "bytes32",
          "name": "",
          "type": "bytes32"
        }
      ],
      "stateMutability": "view",
      "type": "function"
    },
    {
      "inputs": [
        {
          "internalType": "bytes32",
          "name": "",
          "type": "bytes32"
        }
      ],
      "name": "proposalsSnapshots",
      "outputs": [
        {
          "internalType": "uint256",
          "name": "",
          "type": "uint256"
        }
      ],
      "stateMutability": "view",
      "type": "function"
    },
    {
      "inputs": [
        {
          "internalType": "uint256",
          "name": "_proposalTime",
          "type": "uint256"
        },
        {
          "internalType": "uint256",
          "name": "_timeForExecution",
          "type": "uint256"
        },
        {
          "internalType": "uint256",
          "name": "_votingPowerPercentageForProposalExecution",
          "type": "uint256"
        },
        {
          "internalType": "uint256",
          "name": "_votingPowerPercentageForProposalCreation",
          "type": "uint256"
        },
        {
          "internalType": "uint256",
          "name": "_voteGas",
          "type": "uint256"
        },
        {
          "internalType": "uint256",
          "name": "_maxGasPrice",
          "type": "uint256"
        },
        {
          "internalType": "uint256",
          "name": "_maxActiveProposals",
          "type": "uint256"
        },
        {
          "internalType": "uint256",
          "name": "_lockTime",
          "type": "uint256"
        },
        {
          "internalType": "uint256",
          "name": "_minimumMembersForProposalCreation",
          "type": "uint256"
        },
        {
          "internalType": "uint256",
          "name": "_minimumTokensLockedForProposalCreation",
          "type": "uint256"
        }
      ],
      "name": "setConfig",
      "outputs": [],
      "stateMutability": "nonpayable",
      "type": "function"
    },
    {
      "inputs": [
        {
          "internalType": "bytes32",
          "name": "proposalId",
          "type": "bytes32"
        },
        {
          "internalType": "uint256",
          "name": "option",
          "type": "uint256"
        },
        {
          "internalType": "uint256",
          "name": "votingPower",
          "type": "uint256"
        },
        {
          "internalType": "address",
          "name": "voter",
          "type": "address"
        },
        {
          "internalType": "bytes",
          "name": "signature",
          "type": "bytes"
        }
      ],
      "name": "setSignedVote",
      "outputs": [],
      "stateMutability": "nonpayable",
      "type": "function"
    },
    {
      "inputs": [
        {
          "internalType": "bytes32",
          "name": "proposalId",
          "type": "bytes32"
        },
        {
          "internalType": "uint256",
          "name": "option",
          "type": "uint256"
        },
        {
          "internalType": "uint256",
          "name": "votingPower",
          "type": "uint256"
        }
      ],
      "name": "setVote",
      "outputs": [],
      "stateMutability": "nonpayable",
      "type": "function"
    },
    {
      "inputs": [
        {
          "internalType": "bytes32",
          "name": "",
          "type": "bytes32"
        }
      ],
      "name": "signedVotes",
      "outputs": [
        {
          "internalType": "bool",
          "name": "",
          "type": "bool"
        }
      ],
      "stateMutability": "view",
      "type": "function"
    },
    {
      "inputs": [],
      "name": "timeForExecution",
      "outputs": [
        {
          "internalType": "uint256",
          "name": "",
          "type": "uint256"
        }
      ],
      "stateMutability": "view",
      "type": "function"
    },
    {
      "inputs": [],
      "name": "token",
      "outputs": [
        {
          "internalType": "contract IERC20Upgradeable",
          "name": "",
          "type": "address"
        }
      ],
      "stateMutability": "view",
      "type": "function"
    },
    {
      "inputs": [],
      "name": "tokenVault",
      "outputs": [
        {
          "internalType": "contract TokenVault",
          "name": "",
          "type": "address"
        }
      ],
      "stateMutability": "view",
      "type": "function"
    },
    {
      "inputs": [
        {
          "internalType": "address",
          "name": "",
          "type": "address"
        }
      ],
      "name": "tokensLocked",
      "outputs": [
        {
          "internalType": "uint256",
          "name": "amount",
          "type": "uint256"
        },
        {
          "internalType": "uint256",
          "name": "timestamp",
          "type": "uint256"
        }
      ],
      "stateMutability": "view",
      "type": "function"
    },
    {
      "inputs": [],
      "name": "totalLocked",
      "outputs": [
        {
          "internalType": "uint256",
          "name": "",
          "type": "uint256"
        }
      ],
      "stateMutability": "view",
      "type": "function"
    },
    {
      "inputs": [],
      "name": "totalProposals",
      "outputs": [
        {
          "internalType": "uint256",
          "name": "",
          "type": "uint256"
        }
      ],
      "stateMutability": "view",
      "type": "function"
    },
    {
      "inputs": [],
      "name": "voteGas",
      "outputs": [
        {
          "internalType": "uint256",
          "name": "",
          "type": "uint256"
        }
      ],
      "stateMutability": "view",
      "type": "function"
    },
    {
      "inputs": [
        {
          "internalType": "address",
          "name": "account",
          "type": "address"
        }
      ],
      "name": "votingPowerOf",
      "outputs": [
        {
          "internalType": "uint256",
          "name": "",
          "type": "uint256"
        }
      ],
      "stateMutability": "view",
      "type": "function"
    },
    {
      "inputs": [
        {
          "internalType": "address",
          "name": "account",
          "type": "address"
        },
        {
          "internalType": "uint256",
          "name": "snapshotId",
          "type": "uint256"
        }
      ],
      "name": "votingPowerOfAt",
      "outputs": [
        {
          "internalType": "uint256",
          "name": "",
          "type": "uint256"
        }
      ],
      "stateMutability": "view",
      "type": "function"
    },
    {
      "inputs": [
        {
          "internalType": "address[]",
          "name": "accounts",
          "type": "address[]"
        },
        {
          "internalType": "uint256[]",
          "name": "snapshotIds",
          "type": "uint256[]"
        }
      ],
      "name": "votingPowerOfMultipleAt",
      "outputs": [
        {
          "internalType": "uint256[]",
          "name": "",
          "type": "uint256[]"
        }
      ],
      "stateMutability": "view",
      "type": "function"
    },
    {
      "inputs": [],
      "name": "votingPowerPercentageForProposalCreation",
      "outputs": [
        {
          "internalType": "uint256",
          "name": "",
          "type": "uint256"
        }
      ],
      "stateMutability": "view",
      "type": "function"
    },
    {
      "inputs": [],
      "name": "votingPowerPercentageForProposalExecution",
      "outputs": [
        {
          "internalType": "uint256",
          "name": "",
          "type": "uint256"
        }
      ],
      "stateMutability": "view",
      "type": "function"
    },
    {
      "inputs": [
        {
          "internalType": "uint256",
          "name": "",
          "type": "uint256"
        }
      ],
      "name": "withdrawTokens",
      "outputs": [],
      "stateMutability": "nonpayable",
      "type": "function"
    }
  ],
  "transactionHash": "0x5a19a9a5748e65ff1627f7460e0b12880a2b34c8a31347add028e5a7095e18db",
  "numDeployments": 1,
  "bytecode": "0x608060405234801561001057600080fd5b5061504e806100206000396000f3fe608060405260043610620003c15760003560e01c80635e508c2c11620001f7578063ae6192341162000117578063e045035311620000a7578063f98606a71162000075578063f98606a71462000b6b578063f9a92d821462000b83578063fc0c546a1462000ba8578063fc4e703f1462000bca57005b8063e04503531462000ae0578063e158080a1462000af8578063f09951981462000b10578063f4732da61462000b5357005b8063bcc3f3bd11620000e5578063bcc3f3bd1462000a68578063c0a4d64d1462000a8d578063c93e01e31462000aa4578063d8c6a6d11462000abb57005b8063ae61923414620009ef578063b3929aaa1462000a07578063b3b470611462000a2c578063b7c15f8d1462000a5157005b806389c98c061162000193578063a78d80fc1162000161578063a78d80fc1462000974578063a7aeb557146200098c578063ad6c1e3414620009a4578063adf2c7b614620009bb57005b806389c98c0614620009015780638f180305146200091857806392b71654146200092f578063a16fe342146200095457005b80636e27d88911620001d15780636e27d88914620006e657806371893546146200088557806377027ff414620008b65780638029eff114620008cd57005b80635e508c2c146200083f57806364fe6ed214620008575780636c8b72f6146200086e57005b80632467ef9411620002e357806336f8f8d9116200027f578063430694cf116200024d578063430694cf14620007b157806354f2f7af14620007e55780635689141214620008055780635bc789d9146200081d57005b806336f8f8d914620007445780633bf353fb14620007695780633de39c1114620007815780633f10cf15146200079957005b80632d757c3e11620002bd5780632d757c3e14620006645780632fd99c0014620006a1578063315a095d14620006e657806332ed5b12146200070b57005b80632467ef9414620005fe57806325c069fc14620006155780632d5b17de146200063f57005b806313108d74116200035f5780631a5007dd116200032d5780631a5007dd146200056b57806321df0da714620005825780632229a0e214620005b657806322bafdff14620005cd57005b806313108d7414620004f157806316bbecde146200051657806317d7de7c146200053b578063184a0ae9146200055357005b80630a366a63116200039d5780630a366a6314620004685780630d668087146200048f578063123f6d6714620004a7578063130485fe14620004cc57005b80623a40d014620003c357806301a598a614620003f357806306fdde031462000441575b005b348015620003d057600080fd5b50620003db62000be2565b604051620003ea91906200388e565b60405180910390f35b3480156200040057600080fd5b506200042b62000412366004620038f1565b6012602052600090815260409020805460019091015482565b60408051928352602083019190915201620003ea565b3480156200044e57600080fd5b506200045962000c3c565b604051620003ea919062003957565b3480156200047557600080fd5b506200048062000cd2565b604051908152602001620003ea565b3480156200049c57600080fd5b5062000480600d5481565b348015620004b457600080fd5b50620003c1620004c63660046200396c565b62000cff565b348015620004d957600080fd5b506200042b620004eb366004620039d5565b62000e98565b348015620004fe57600080fd5b50620004806200051036600462003c72565b62000eca565b3480156200052357600080fd5b50620003c16200053536600462003d5c565b62000f71565b3480156200054857600080fd5b5062000459620010a2565b3480156200056057600080fd5b506200048060035481565b3480156200057857600080fd5b50600a5462000480565b3480156200058f57600080fd5b506000546001600160a01b03165b6040516001600160a01b039091168152602001620003ea565b348015620005c357600080fd5b5060165462000480565b348015620005da57600080fd5b5062000480620005ec36600462003d89565b60009081526018602052604090205490565b3480156200060b57600080fd5b50600c5462000480565b3480156200062257600080fd5b506200062c600a81565b60405160ff9091168152602001620003ea565b3480156200064c57600080fd5b50620003c16200065e36600462003da3565b62001133565b3480156200067157600080fd5b506200048062000683366004620038f1565b6001600160a01b031660009081526012602052604090206001015490565b348015620006ae57600080fd5b50620006d5620006c036600462003d89565b60136020526000908152604090205460ff1681565b6040519015158152602001620003ea565b348015620006f357600080fd5b50620003c16200070536600462003d89565b62001426565b3480156200071857600080fd5b50620007306200072a36600462003d89565b62001483565b604051620003ea9695949392919062003e4d565b3480156200075157600080fd5b50620003c16200076336600462003ead565b620015e7565b3480156200077657600080fd5b5062000480600c5481565b3480156200078e57600080fd5b506200048060085481565b348015620007a657600080fd5b506200048060045481565b348015620007be57600080fd5b50620007d6620007d036600462003d89565b620017c5565b604051620003ea919062004035565b348015620007f257600080fd5b506011546001600160a01b03166200059d565b3480156200081257600080fd5b5062000480600e5481565b3480156200082a57600080fd5b506011546200059d906001600160a01b031681565b3480156200084c57600080fd5b506200048060055481565b3480156200086457600080fd5b5060105462000480565b3480156200087b57600080fd5b5060075462000480565b3480156200089257600080fd5b5062000480620008a436600462003d89565b60186020526000908152604090205481565b348015620008c357600080fd5b5060095462000480565b348015620008da57600080fd5b50620006d5620008ec36600462003d89565b60009081526013602052604090205460ff1690565b3480156200090e57600080fd5b5060085462000480565b3480156200092557600080fd5b50600b5462000480565b3480156200093c57600080fd5b50620004806200094e36600462004142565b62001b78565b3480156200096157600080fd5b506001546001600160a01b03166200059d565b3480156200098157600080fd5b5062000480600a5481565b3480156200099957600080fd5b5062000480600f5481565b348015620009b157600080fd5b50600f5462000480565b348015620009c857600080fd5b50620009e0620009da3660046200417e565b62001bcf565b604051620003ea9190620041e9565b348015620009fc57600080fd5b506200048062001cad565b34801562000a1457600080fd5b506200048062000a2636600462003d89565b62001cc7565b34801562000a3957600080fd5b50620003c162000a4b36600462003d89565b62001ce9565b34801562000a5e57600080fd5b5060045462000480565b34801562000a7557600080fd5b506200048062000a87366004620038f1565b6200264a565b34801562000a9a57600080fd5b50600d5462000480565b34801562000ab157600080fd5b5060035462000480565b34801562000ac857600080fd5b506200048062000ada36600462003d89565b620026bc565b34801562000aed57600080fd5b506200048060095481565b34801562000b0557600080fd5b506200048060105481565b34801562000b1d57600080fd5b506200042b62000b2f366004620039d5565b60146020908152600092835260408084209091529082529020805460019091015482565b34801562000b6057600080fd5b50620004806200275b565b34801562000b7857600080fd5b506200048060065481565b34801562000b9057600080fd5b506200048062000ba2366004620041fe565b620027d6565b34801562000bb557600080fd5b506000546200059d906001600160a01b031681565b34801562000bd757600080fd5b506200048060075481565b6060601680548060200260200160405190810160405280929190818152602001828054801562000c3257602002820191906000526020600020905b81548152602001906001019080831162000c1d575b5050505050905090565b6002805462000c4b906200422b565b80601f016020809104026020016040519081016040528092919081815260200182805462000c79906200422b565b801562000cca5780601f1062000c9e5761010080835404028352916020019162000cca565b820191906000526020600020905b81548152906001019060200180831162000cac57829003601f168201915b505050505081565b600062000cfa61271062000cf360065462000cec6200275b565b9062002856565b9062002864565b905090565b33301462000d855760405162461bcd60e51b815260206004820152604260248201527f45524332304775696c643a204f6e6c792063616c6c61626c652062792045524360448201527f32306775696c6420697473656c66206f72207768656e20696e697469616c697a606482015261195960f21b608482015260a4015b60405180910390fd5b60008a1162000da85760405162461bcd60e51b815260040162000d7c9062004267565b8983101562000dcb5760405162461bcd60e51b815260040162000d7c90620042b6565b6000881162000dee5760405162461bcd60e51b815260040162000d7c9062004313565b6201c90886111562000e695760405162461bcd60e51b815260206004820152603960248201527f45524332304775696c643a20766f7465206761732068617320746f206265206560448201527f7175616c206f72206c6f776572207468616e2031313730303000000000000000606482015260840162000d7c565b600399909955600497909755600595909555600693909355600791909155600855600955600d55600f55601055565b60008281526014602090815260408083206001600160a01b0385168452909152902080546001909101545b9250929050565b60008062000edd88888888888862002872565b905060008054906101000a90046001600160a01b03166001600160a01b0316635439ad866040518163ffffffff1660e01b8152600401602060405180830381865afa15801562000f31573d6000803e3d6000fd5b505050506040513d601f19601f8201168201806040525081019062000f57919062004370565b600082815260186020526040902055979650505050505050565b600083815260156020526040902060020154421062000fa45760405162461bcd60e51b815260040162000d7c906200438a565b600083815260186020526040902054819062000fc2903390620027d6565b101562000fe35760405162461bcd60e51b815260040162000d7c90620043e0565b60008381526014602090815260408083203384529091529020541580156200102557506000838152601460209081526040808320338452909152902060010154155b80620010705750600083815260146020908152604080832033845290915290205482148015620010705750600083815260146020908152604080832033845290915290206001015481115b6200108f5760405162461bcd60e51b815260040162000d7c9062004431565b6200109d3384848462002e4b565b505050565b606060028054620010b3906200422b565b80601f0160208091040260200160405190810160405280929190818152602001828054620010e1906200422b565b801562000c325780601f10620011065761010080835404028352916020019162000c32565b820191906000526020600020905b8154815290600101906020018083116200111457509395945050505050565b6000858152601560205260409020600201544210620011665760405162461bcd60e51b815260040162000d7c906200438a565b6000620011768387878762001b78565b60008181526013602052604090205490915060ff1615620011e65760405162461bcd60e51b8152602060048201526024808201527f536e617073686f7452657045524332304775696c643a20416c726561647920766044820152631bdd195960e21b606482015260840162000d7c565b6200124a8262001243836040517f19457468657265756d205369676e6564204d6573736167653a0a3332000000006020820152603c8101829052600090605c01604051602081830303815290604052805190602001209050919050565b90620030ac565b6001600160a01b0316836001600160a01b031614620012b85760405162461bcd60e51b815260206004820152602360248201527f536e617073686f7452657045524332304775696c643a2057726f6e67207369676044820152623732b960e91b606482015260840162000d7c565b6000818152601360209081526040808320805460ff1916600117905588835260189091529020548490620012ee908590620027d6565b1015801562001321575060008681526014602090815260408083206001600160a01b038716845290915290206001015484115b620013405760405162461bcd60e51b815260040162000d7c90620043e0565b60008681526014602090815260408083206001600160a01b038716845290915290205415801562001394575060008681526014602090815260408083206001600160a01b0387168452909152902060010154155b80620013f1575060008681526014602090815260408083206001600160a01b038716845290915290205485148015620013f1575060008681526014602090815260408083206001600160a01b038716845290915290206001015484115b620014105760405162461bcd60e51b815260040162000d7c9062004431565b6200141e8387878762002e4b565b505050505050565b60405162461bcd60e51b815260206004820152602b60248201527f536e617073686f7452657045524332304775696c643a20746f6b656e2076617560448201526a1b1d08191a5cd8589b195960aa1b606482015260840162000d7c565b60156020526000908152604090208054600182015460028301546006840180546001600160a01b03909416949293919291620014bf906200422b565b80601f0160208091040260200160405190810160405280929190818152602001828054620014ed906200422b565b80156200153e5780601f1062001512576101008083540402835291602001916200153e565b820191906000526020600020905b8154815290600101906020018083116200152057829003601f168201915b50505050509080600701805462001555906200422b565b80601f016020809104026020016040519081016040528092919081815260200182805462001583906200422b565b8015620015d45780601f10620015a857610100808354040283529160200191620015d4565b820191906000526020600020905b815481529060010190602001808311620015b657829003601f168201915b5050506008909301549192505060ff1686565b60175462010000900460ff1680620016075750601754610100900460ff16155b620016265760405162461bcd60e51b815260040162000d7c90620044a3565b60175462010000900460ff161580156200164c576017805462ffff001916620101001790555b620016618c8c8c8c8c8c8c8c8c8c8c620030cc565b600160009054906101000a90046001600160a01b03166001600160a01b0316636cfe0489308e7f40c10f19c047ae7dfa66d6312b683d2ea3dfbcb4159e96b967c5f4b0a86f2842600060016040518663ffffffff1660e01b8152600401620016ce959493929190620044f1565b600060405180830381600087803b158015620016e957600080fd5b505af1158015620016fe573d6000803e3d6000fd5b50505050600160009054906101000a90046001600160a01b03166001600160a01b0316636cfe0489308e7f9dc29fac0ba6d4fc521c69c2b0c636d612e3343bc39ed934429b8876b0d12cba600060016040518663ffffffff1660e01b81526004016200176f959493929190620044f1565b600060405180830381600087803b1580156200178a57600080fd5b505af11580156200179f573d6000803e3d6000fd5b505050508015620017b7576017805462ff0000191690555b505050505050505050505050565b620017cf62003698565b60008281526015602090815260409182902082516101408101845281546001600160a01b0316815260018201548184015260028201548185015260038201805485518186028101860190965280865291949293606086019392908301828280156200186457602002820191906000526020600020905b81546001600160a01b0316815260019091019060200180831162001845575b5050505050815260200160048201805480602002602001604051908101604052809291908181526020016000905b8282101562001948578382906000526020600020018054620018b4906200422b565b80601f0160208091040260200160405190810160405280929190818152602001828054620018e2906200422b565b8015620019335780601f10620019075761010080835404028352916020019162001933565b820191906000526020600020905b8154815290600101906020018083116200191557829003601f168201915b50505050508152602001906001019062001892565b50505050815260200160058201805480602002602001604051908101604052809291908181526020018280548015620019a157602002820191906000526020600020905b8154815260200190600101908083116200198c575b50505050508152602001600682018054620019bc906200422b565b80601f0160208091040260200160405190810160405280929190818152602001828054620019ea906200422b565b801562001a3b5780601f1062001a0f5761010080835404028352916020019162001a3b565b820191906000526020600020905b81548152906001019060200180831162001a1d57829003601f168201915b5050505050815260200160078201805462001a56906200422b565b80601f016020809104026020016040519081016040528092919081815260200182805462001a84906200422b565b801562001ad55780601f1062001aa95761010080835404028352916020019162001ad5565b820191906000526020600020905b81548152906001019060200180831162001ab757829003601f168201915b5050509183525050600882015460209091019060ff16600481111562001aff5762001aff62003e14565b600481111562001b135762001b1362003e14565b81526020016009820180548060200260200160405190810160405280929190818152602001828054801562001b6857602002820191906000526020600020905b81548152602001906001019080831162001b53575b5050505050815250509050919050565b6040516bffffffffffffffffffffffff19606086901b166020820152603481018490526054810183905260748101829052600090609401604051602081830303815290604052805190602001209050949350505050565b60606000835167ffffffffffffffff81111562001bf05762001bf062003a04565b60405190808252806020026020018201604052801562001c1a578160200160208202803683370190505b50905060005b845181101562001ca35762001c6e85828151811062001c435762001c436200452c565b602002602001015185838151811062001c605762001c606200452c565b6020026020010151620027d6565b82828151811062001c835762001c836200452c565b60209081029190910101528062001c9a8162004558565b91505062001c20565b5090505b92915050565b600062000cfa61271062000cf360055462000cec6200275b565b6016818154811062001cd857600080fd5b600091825260209091200154905081565b60175460ff161562001d515760405162461bcd60e51b815260206004820152602a60248201527f4552433230536e617073686f745265703a2050726f706f73616c20756e6465726044820152691032bc32b1baba34b7b760b11b606482015260840162000d7c565b600160008281526015602052604090206008015460ff16600481111562001d7c5762001d7c62003e14565b1462001ddf5760405162461bcd60e51b815260206004820152602b60248201527f4552433230536e617073686f745265703a2050726f706f73616c20616c72656160448201526a191e48195e1958dd5d195960aa1b606482015260840162000d7c565b600081815260156020526040902060020154421162001e555760405162461bcd60e51b815260206004820152602b60248201527f4552433230536e617073686f745265703a2050726f706f73616c206861736e2760448201526a1d08195b991959081e595d60aa1b606482015260840162000d7c565b60008181526015602052604081206009018054829190829062001e7c5762001e7c6200452c565b600091825260209091200154905060015b60008481526015602052604090206009015481101562001fbc5762001eb284620026bc565b600085815260156020526040902060090180548390811062001ed85762001ed86200452c565b90600052602060002001541015801562001f245750600084815260156020526040902060090180548391908390811062001f165762001f166200452c565b906000526020600020015410155b1562001fa757600084815260156020526040902060090180548391908390811062001f535762001f536200452c565b90600052602060002001540362001f6e576000925062001fa7565b6000848152601560205260409020600901805491935083918290811062001f995762001f996200452c565b906000526020600020015491505b8062001fb38162004558565b91505062001e8d565b826000036200200f576000848152601560205260409020600801805460ff19166002908117909155849060008051602062004ff9833981519152905b60405190815260200160405180910390a262002631565b6004546000858152601560205260409020600201544291620020329190620032eb565b101562002071576000848152601560205260409020600801805460ff19166004908117909155849060008051602062004ff98339815191529062001ff8565b600084815260156020526040812060088101805460ff1916600317905560090154620020bd90620020a4906001620032f9565b6000878152601560205260409020600301549062002864565b9050620020d8620020d0856001620032f9565b829062002856565b91506000620020e88383620032eb565b9050600160009054906101000a90046001600160a01b03166001600160a01b0316633e7a47b26040518163ffffffff1660e01b8152600401600060405180830381600087803b1580156200213b57600080fd5b505af115801562002150573d6000803e3d6000fd5b505050505b80831015620025985760008681526015602052604081206003018054859081106200218457620021846200452c565b6000918252602090912001546001600160a01b031614801590620021e457506000868152601560205260408120600401805485908110620021c957620021c96200452c565b906000526020600020018054620021e0906200422b565b9050115b15620025835760008681526015602052604081206004018054859081106200221057620022106200452c565b90600052602060002001805462002227906200422b565b80601f016020809104026020016040519081016040528092919081815260200182805462002255906200422b565b8015620022a65780601f106200227a57610100808354040283529160200191620022a6565b820191906000526020600020905b8154815290600101906020018083116200228857829003601f168201915b50505060208084015160015460008d815260159093526040909220600301805495965090946001600160a01b03909216935063eed470339250309189908110620022f457620022f46200452c565b9060005260206000200160009054906101000a90046001600160a01b031684601560008e81526020019081526020016000206005018a815481106200233d576200233d6200452c565b60009182526020909120015460405160e086901b6001600160e01b031990811682526001600160a01b039586166004830152939094166024850152911660448301526064820152608401600060405180830381600087803b158015620023a257600080fd5b505af1925050508015620023b4575060015b6200240f57620023c362004574565b806308c379a003620024035750620023da62004591565b80620023e7575062002405565b8060405162461bcd60e51b815260040162000d7c919062003957565b505b3d6000803e3d6000fd5b6017805460ff1916600117905560008881526015602052604081206003018054879081106200244257620024426200452c565b60009182526020808320909101548b83526015909152604090912060050180546001600160a01b0390921691889081106200248157620024816200452c565b9060005260206000200154601560008c81526020019081526020016000206004018881548110620024b657620024b66200452c565b90600052602060002001604051620024cf919062004621565b60006040518083038185875af1925050503d80600081146200250e576040519150601f19603f3d011682016040523d82523d6000602084013e62002513565b606091505b5050905080620025755760405162461bcd60e51b815260206004820152602660248201527f4552433230536e617073686f745265703a2050726f706f73616c2063616c6c2060448201526519985a5b195960d21b606482015260840162000d7c565b50506017805460ff19169055505b826200258f8162004558565b93505062002155565b60015460405163fb0fde8560e01b81523060048201526001600160a01b039091169063fb0fde85906024016020604051808303816000875af1158015620025e3573d6000803e3d6000fd5b505050506040513d601f19601f820116820180604052508101906200260991906200469f565b508560008051602062004ff9833981519152600360405190815260200160405180910390a250505b600c5462002641906001620032f9565b600c5550505050565b600080546040516370a0823160e01b81526001600160a01b038481166004830152909116906370a0823190602401602060405180830381865afa15801562002696573d6000803e3d6000fd5b505050506040513d601f19601f8201168201806040525081019062001ca7919062004370565b60055460008054909162001ca7916127109162000cf3916001600160a01b031663981b24d0620026f88860009081526018602052604090205490565b6040518263ffffffff1660e01b81526004016200271791815260200190565b602060405180830381865afa15801562002735573d6000803e3d6000fd5b505050506040513d601f19601f8201168201806040525081019062000cec919062004370565b60008060009054906101000a90046001600160a01b03166001600160a01b03166318160ddd6040518163ffffffff1660e01b8152600401602060405180830381865afa158015620027b0573d6000803e3d6000fd5b505050506040513d601f19601f8201168201806040525081019062000cfa919062004370565b6000805460405163277166bf60e11b81526001600160a01b0385811660048301526024820185905290911690634ee2cd7e90604401602060405180830381865afa15801562002829573d6000803e3d6000fd5b505050506040513d601f19601f820116820180604052508101906200284f919062004370565b9392505050565b60006200284f8284620046c3565b60006200284f8284620046f3565b6000601054600e541015620028f05760405162461bcd60e51b815260206004820152603960248201527f45524332304775696c643a204e6f7420656e6f75676820746f6b656e73206c6f60448201527f636b656420746f2063726561746520612070726f706f73616c00000000000000606482015260840162000d7c565b600f54600b541015620029625760405162461bcd60e51b815260206004820152603360248201527f45524332304775696c643a204e6f7420656e6f756768206d656d6265727320746044820152721bc818dc99585d194818481c1c9bdc1bdcd85b606a1b606482015260840162000d7c565b600954600c5410620029d65760405162461bcd60e51b815260206004820152603660248201527f45524332304775696c643a204d6178696d756d20616d6f756e74206f662061636044820152751d1a5d99481c1c9bdc1bdcd85b1cc81c995858da195960521b606482015260840162000d7c565b620029e062000cd2565b620029eb336200264a565b101562002a595760405162461bcd60e51b815260206004820152603560248201527f45524332304775696c643a204e6f7420656e6f75676820766f74696e67506f77604482015274195c881d1bc818dc99585d19481c1c9bdc1bdcd85b605a1b606482015260840162000d7c565b8551875114801562002a6c575084518751145b62002ad75760405162461bcd60e51b815260206004820152603460248201527f45524332304775696c643a2057726f6e67206c656e677468206f6620746f2c2060448201527364617461206f722076616c75652061727261797360601b606482015260840162000d7c565b600087511162002b445760405162461bcd60e51b815260206004820152603160248201527f45524332304775696c643a20746f2c20646174612076616c7565206172726179604482015270732063616e6e6f7420626520656d70747960781b606482015260840162000d7c565b8651841115801562002b615750845162002b5f908562003307565b155b62002bd55760405162461bcd60e51b815260206004820152603760248201527f45524332304775696c643a20496e76616c696420746f74616c4f7074696f6e7360448201527f206f72206f7074696f6e2063616c6c73206c656e677468000000000000000000606482015260840162000d7c565b600a84111562002c4e5760405162461bcd60e51b815260206004820152603a60248201527f45524332304775696c643a204d6178696d756d20616d6f756e74206f66206f7060448201527f74696f6e73207065722070726f706f73616c2072656163686564000000000000606482015260840162000d7c565b600a546040516bffffffffffffffffffffffff193360601b166020820152426034820152605481019190915260009060740160405160208183030381529060405280519060200120905062002cb06001600a54620032eb90919063ffffffff16565b600a55600081815260156020526040902080546001600160a01b03191633178155426001820181905560035462002ce89190620032eb565b6002820155885162002d0490600383019060208c019062003708565b50875162002d1c90600483019060208b019062003772565b50865162002d3490600583019060208a0190620037cb565b506006810162002d45868262004754565b506007810162002d56858262004754565b5062002d64866001620032eb565b67ffffffffffffffff81111562002d7f5762002d7f62003a04565b60405190808252806020026020018201604052801562002da9578160200160208202803683370190505b50805162002dc2916009840191602090910190620037cb565b5060088101805460ff19166001908117909155600c5462002de391620032eb565b600c558160008051602062004ff9833981519152600160405190815260200160405180910390a250601680546001810182556000919091527fd833147d7dc355ba459fc788f669e58cfaf9dc25ddcd0702e87d69c7b512428901819055979650505050505050565b60008381526014602090815260408083206001600160a01b03881684528252808320600101548684526015909252909120600901805462002ec192849262002eba928790811062002ea05762002ea06200452c565b9060005260206000200154620032f990919063ffffffff16565b90620032eb565b600084815260156020526040902060090180548490811062002ee75762002ee76200452c565b60009182526020808320909101929092558481526014825260408082206001600160a01b038816835283528082208581556001018490558582526015909252206002015462002f4e856001600160a01b031660009081526012602052604090206001015490565b101562002f83576000838152601560209081526040808320600201546001600160a01b03881684526012909252909120600101555b604080516001600160a01b038616815260208101839052839185917f583c62f152711bcb1ca6186c1065821ff17a7cbe226dcb559a1c889dcf0d769b910160405180910390a360075415620030a657600062002ff962002fef6008543a6200331590919063ffffffff16565b6007549062002856565b90508047101580156200300b5750333b155b15620030a457604051600090339083908381818185875af1925050503d806000811462003055576040519150601f19603f3d011682016040523d82523d6000602084013e6200305a565b606091505b50509050806200141e5760405162461bcd60e51b81526020600482015260146024820152734661696c656420746f20726566756e642067617360601b604482015260640162000d7c565b505b50505050565b6000806000620030bd85856200332d565b9150915062001ca381620033a1565b60175462010000900460ff1680620030ec5750601754610100900460ff16155b6200310b5760405162461bcd60e51b815260040162000d7c90620044a3565b60175462010000900460ff1615801562003131576017805462ffff001916620101001790555b6001600160a01b038c16620031985760405162461bcd60e51b815260206004820152602660248201527f45524332304775696c643a20746f6b656e2063616e74206265207a65726f206160448201526564647265737360d01b606482015260840162000d7c565b60008b11620031bb5760405162461bcd60e51b815260040162000d7c9062004267565b8a831015620031de5760405162461bcd60e51b815260040162000d7c90620042b6565b60008911620032015760405162461bcd60e51b815260040162000d7c9062004313565b60026200320f888262004754565b50600080546001600160a01b0319166001600160a01b038e1690811790915560405130906200323e9062003809565b6001600160a01b03928316815291166020820152604001604051809103906000f08015801562003272573d6000803e3d6000fd5b50601180546001600160a01b03199081166001600160a01b039384161790915560038d905560048c905560058b905560068a9055600788905560088790556009869055600d859055600180549091169184169190911790558015620017b7576017805462ff000019169055505050505050505050505050565b60006200284f828462004821565b60006200284f828462004837565b60006200284f82846200484d565b60008183106200332657816200284f565b5090919050565b6000808251604103620033675760208301516040840151606085015160001a6200335a8782858562003572565b9450945050505062000ec3565b82516040036200339457602083015160408401516200338886838362003667565b93509350505062000ec3565b5060009050600262000ec3565b6000816004811115620033b857620033b862003e14565b03620033c15750565b6001816004811115620033d857620033d862003e14565b03620034275760405162461bcd60e51b815260206004820152601860248201527f45434453413a20696e76616c6964207369676e61747572650000000000000000604482015260640162000d7c565b60028160048111156200343e576200343e62003e14565b036200348d5760405162461bcd60e51b815260206004820152601f60248201527f45434453413a20696e76616c6964207369676e6174757265206c656e67746800604482015260640162000d7c565b6003816004811115620034a457620034a462003e14565b03620034fe5760405162461bcd60e51b815260206004820152602260248201527f45434453413a20696e76616c6964207369676e6174757265202773272076616c604482015261756560f01b606482015260840162000d7c565b600481600481111562003515576200351562003e14565b036200356f5760405162461bcd60e51b815260206004820152602260248201527f45434453413a20696e76616c6964207369676e6174757265202776272076616c604482015261756560f01b606482015260840162000d7c565b50565b6000807f7fffffffffffffffffffffffffffffff5d576e7357a4501ddfe92f46681b20a0831115620035ab57506000905060036200365e565b8460ff16601b14158015620035c457508460ff16601c14155b15620035d757506000905060046200365e565b6040805160008082526020820180845289905260ff881692820192909252606081018690526080810185905260019060a0016020604051602081039080840390855afa1580156200362c573d6000803e3d6000fd5b5050604051601f1901519150506001600160a01b03811662003657576000600192509250506200365e565b9150600090505b94509492505050565b6000806001600160ff1b03831660ff84901c601b016200368a8782888562003572565b935093505050935093915050565b60405180610140016040528060006001600160a01b031681526020016000815260200160008152602001606081526020016060815260200160608152602001606081526020016060815260200160006004811115620036fb57620036fb62003e14565b8152602001606081525090565b82805482825590600052602060002090810192821562003760579160200282015b828111156200376057825182546001600160a01b0319166001600160a01b0390911617825560209092019160019091019062003729565b506200376e92915062003817565b5090565b828054828255906000526020600020908101928215620037bd579160200282015b82811115620037bd5782518290620037ac908262004754565b509160200191906001019062003793565b506200376e9291506200382e565b82805482825590600052602060002090810192821562003760579160200282015b8281111562003760578251825591602001919060010190620037ec565b610794806200486583390190565b5b808211156200376e576000815560010162003818565b808211156200376e5760006200384582826200384f565b506001016200382e565b5080546200385d906200422b565b6000825580601f106200386e575050565b601f0160209004906000526020600020908101906200356f919062003817565b6020808252825182820181905260009190848201906040850190845b81811015620038c857835183529284019291840191600101620038aa565b50909695505050505050565b80356001600160a01b0381168114620038ec57600080fd5b919050565b6000602082840312156200390457600080fd5b6200284f82620038d4565b6000815180845260005b81811015620039375760208185018101518683018201520162003919565b506000602082860101526020601f19601f83011685010191505092915050565b6020815260006200284f60208301846200390f565b6000806000806000806000806000806101408b8d0312156200398d57600080fd5b505088359a60208a01359a5060408a013599606081013599506080810135985060a0810135975060c0810135965060e081013595506101008101359450610120013592509050565b60008060408385031215620039e957600080fd5b82359150620039fb60208401620038d4565b90509250929050565b634e487b7160e01b600052604160045260246000fd5b601f8201601f1916810167ffffffffffffffff8111828210171562003a435762003a4362003a04565b6040525050565b600067ffffffffffffffff82111562003a675762003a6762003a04565b5060051b60200190565b600082601f83011262003a8357600080fd5b8135602062003a928262003a4a565b60405162003aa1828262003a1a565b83815260059390931b850182019282810191508684111562003ac257600080fd5b8286015b8481101562003ae85762003ada81620038d4565b835291830191830162003ac6565b509695505050505050565b600082601f83011262003b0557600080fd5b813567ffffffffffffffff81111562003b225762003b2262003a04565b60405162003b3b601f8301601f19166020018262003a1a565b81815284602083860101111562003b5157600080fd5b816020850160208301376000918101602001919091529392505050565b600082601f83011262003b8057600080fd5b8135602062003b8f8262003a4a565b60405162003b9e828262003a1a565b83815260059390931b850182019282810191508684111562003bbf57600080fd5b8286015b8481101562003ae857803567ffffffffffffffff81111562003be55760008081fd5b62003bf58986838b010162003af3565b84525091830191830162003bc3565b600082601f83011262003c1657600080fd5b8135602062003c258262003a4a565b60405162003c34828262003a1a565b83815260059390931b850182019282810191508684111562003c5557600080fd5b8286015b8481101562003ae8578035835291830191830162003c59565b60008060008060008060c0878903121562003c8c57600080fd5b863567ffffffffffffffff8082111562003ca557600080fd5b62003cb38a838b0162003a71565b9750602089013591508082111562003cca57600080fd5b62003cd88a838b0162003b6e565b9650604089013591508082111562003cef57600080fd5b62003cfd8a838b0162003c04565b955060608901359450608089013591508082111562003d1b57600080fd5b62003d298a838b0162003af3565b935060a089013591508082111562003d4057600080fd5b5062003d4f89828a0162003af3565b9150509295509295509295565b60008060006060848603121562003d7257600080fd5b505081359360208301359350604090920135919050565b60006020828403121562003d9c57600080fd5b5035919050565b600080600080600060a0868803121562003dbc57600080fd5b85359450602086013593506040860135925062003ddc60608701620038d4565b9150608086013567ffffffffffffffff81111562003df957600080fd5b62003e078882890162003af3565b9150509295509295909350565b634e487b7160e01b600052602160045260246000fd5b6005811062003e4957634e487b7160e01b600052602160045260246000fd5b9052565b60018060a01b038716815285602082015284604082015260c06060820152600062003e7c60c08301866200390f565b828103608084015262003e9081866200390f565b91505062003ea260a083018462003e2a565b979650505050505050565b60008060008060008060008060008060006101608c8e03121562003ed057600080fd5b62003edb8c620038d4565b9a5060208c0135995060408c0135985060608c0135975060808c0135965060a08c013567ffffffffffffffff81111562003f1457600080fd5b62003f228e828f0162003af3565b96505060c08c0135945060e08c013593506101008c013592506101208c0135915062003f526101408d01620038d4565b90509295989b509295989b9093969950565b600081518084526020808501945080840160005b8381101562003f9f5781516001600160a01b03168752958201959082019060010162003f78565b509495945050505050565b600081518084526020808501808196508360051b8101915082860160005b8581101562003ff657828403895262003fe38483516200390f565b9885019893509084019060010162003fc8565b5091979650505050505050565b600081518084526020808501945080840160005b8381101562003f9f5781518752958201959082019060010162004017565b60208152620040506020820183516001600160a01b03169052565b6020820151604082015260408201516060820152600060608301516101408060808501526200408461016085018362003f64565b91506080850151601f19808685030160a0870152620040a4848362003faa565b935060a08701519150808685030160c0870152620040c3848362004003565b935060c08701519150808685030160e0870152620040e284836200390f565b935060e087015191506101008187860301818801526200410385846200390f565b9450808801519250506101206200411d8188018462003e2a565b87015186850390910183870152905062004138838262004003565b9695505050505050565b600080600080608085870312156200415957600080fd5b6200416485620038d4565b966020860135965060408601359560600135945092505050565b600080604083850312156200419257600080fd5b823567ffffffffffffffff80821115620041ab57600080fd5b620041b98683870162003a71565b93506020850135915080821115620041d057600080fd5b50620041df8582860162003c04565b9150509250929050565b6020815260006200284f602083018462004003565b600080604083850312156200421257600080fd5b6200421d83620038d4565b946020939093013593505050565b600181811c908216806200424057607f821691505b6020821081036200426157634e487b7160e01b600052602260045260246000fd5b50919050565b6020808252602f908201527f45524332304775696c643a2070726f706f73616c2074696d652068617320746f60408201526e0206265206d6f7265207468616e203608c1b606082015260800190565b6020808252603e908201527f45524332304775696c643a206c6f636b54696d652068617320746f206265206860408201527f6967686572206f7220657175616c20746f2070726f706f73616c54696d650000606082015260800190565b6020808252603c908201527f45524332304775696c643a20766f74696e6720706f77657220666f722065786560408201527f637574696f6e2068617320746f206265206d6f7265207468616e203000000000606082015260800190565b6000602082840312156200438357600080fd5b5051919050565b60208082526036908201527f536e617073686f7452657045524332304775696c643a2050726f706f73616c20604082015275195b9919590b0818d85b9b9bdd081899481d9bdd195960521b606082015260800190565b60208082526031908201527f536e617073686f7452657045524332304775696c643a20496e76616c696420766040820152701bdd1a5b99d41bddd95c88185b5bdd5b9d607a1b606082015260800190565b6020808252604c908201527f536e617073686f7452657045524332304775696c643a2043616e6e6f7420636860408201527f616e6765206f7074696f6e20766f7465642c206f6e6c7920696e63726561736560608201526b103b37ba34b733a837bbb2b960a11b608082015260a00190565b6020808252602e908201527f496e697469616c697a61626c653a20636f6e747261637420697320616c72656160408201526d191e481a5b9a5d1a585b1a5e995960921b606082015260800190565b6001600160a01b0395861681529390941660208401526001600160e01b03199190911660408301526060820152901515608082015260a00190565b634e487b7160e01b600052603260045260246000fd5b634e487b7160e01b600052601160045260246000fd5b6000600182016200456d576200456d62004542565b5060010190565b600060033d11156200458e5760046000803e5060005160e01c5b90565b600060443d1015620045a05790565b6040516003193d81016004833e81513d67ffffffffffffffff8160248401118184111715620045d157505050505090565b8285019150815181811115620045ea5750505050505090565b843d8701016020828501011115620046055750505050505090565b620046166020828601018762003a1a565b509095945050505050565b600080835462004631816200422b565b600182811680156200464c5760018114620046625762004693565b60ff198416875282151583028701945062004693565b8760005260208060002060005b858110156200468a5781548a8201529084019082016200466f565b50505082870194505b50929695505050505050565b600060208284031215620046b257600080fd5b815180151581146200284f57600080fd5b808202811582820484141762001ca75762001ca762004542565b634e487b7160e01b600052601260045260246000fd5b600082620047055762004705620046dd565b500490565b601f8211156200109d57600081815260208120601f850160051c81016020861015620047335750805b601f850160051c820191505b818110156200141e578281556001016200473f565b815167ffffffffffffffff81111562004771576200477162003a04565b62004789816200478284546200422b565b846200470a565b602080601f831160018114620047c15760008415620047a85750858301515b600019600386901b1c1916600185901b1785556200141e565b600085815260208120601f198616915b82811015620047f257888601518255948401946001909101908401620047d1565b5085821015620048115787850151600019600388901b60f8161c191681555b5050505050600190811b01905550565b8082018082111562001ca75762001ca762004542565b8181038181111562001ca75762001ca762004542565b6000826200485f576200485f620046dd565b50069056fe608060405234801561001057600080fd5b5060405161079438038061079483398101604081905261002f9161007c565b600080546001600160a01b039384166001600160a01b031991821617909155600180549290931691161790556100af565b80516001600160a01b038116811461007757600080fd5b919050565b6000806040838503121561008f57600080fd5b61009883610060565b91506100a660208401610060565b90509250929050565b6106d6806100be6000396000f3fe608060405234801561001057600080fd5b506004361061007d5760003560e01c80636e9960c31161005b5780636e9960c3146100ef578063f3fef3a314610100578063f851a44014610113578063fc0c546a1461012657600080fd5b806321df0da71461008257806327e235e3146100ac57806347e7ef24146100da575b600080fd5b6000546001600160a01b03165b6040516001600160a01b0390911681526020015b60405180910390f35b6100cc6100ba36600461058a565b60026020526000908152604090205481565b6040519081526020016100a3565b6100ed6100e83660046105a5565b610139565b005b6001546001600160a01b031661008f565b6100ed61010e3660046105a5565b61020a565b60015461008f906001600160a01b031681565b60005461008f906001600160a01b031681565b6001546001600160a01b031633146101af5760405162461bcd60e51b815260206004820152602e60248201527f546f6b656e5661756c743a204465706f736974206d7573742062652073656e7460448201526d103a343937bab3b41030b236b4b760911b60648201526084015b60405180910390fd5b6000546101c7906001600160a01b031683308461025b565b6001600160a01b0382166000908152600260205260409020546101ea90826102cc565b6001600160a01b0390921660009081526002602052604090209190915550565b6001546001600160a01b0316331461022157600080fd5b600054610238906001600160a01b031683836102e1565b6001600160a01b0382166000908152600260205260409020546101ea9082610316565b6040516001600160a01b03808516602483015283166044820152606481018290526102c69085906323b872dd60e01b906084015b60408051601f198184030181529190526020810180516001600160e01b03166001600160e01b031990931692909217909152610322565b50505050565b60006102d882846105e5565b90505b92915050565b6040516001600160a01b03831660248201526044810182905261031190849063a9059cbb60e01b9060640161028f565b505050565b60006102d882846105f8565b6000610377826040518060400160405280602081526020017f5361666545524332303a206c6f772d6c6576656c2063616c6c206661696c6564815250856001600160a01b03166103f49092919063ffffffff16565b8051909150156103115780806020019051810190610395919061060b565b6103115760405162461bcd60e51b815260206004820152602a60248201527f5361666545524332303a204552433230206f7065726174696f6e20646964206e6044820152691bdd081cdd58d8d9595960b21b60648201526084016101a6565b6060610403848460008561040d565b90505b9392505050565b60608247101561046e5760405162461bcd60e51b815260206004820152602660248201527f416464726573733a20696e73756666696369656e742062616c616e636520666f6044820152651c8818d85b1b60d21b60648201526084016101a6565b843b6104bc5760405162461bcd60e51b815260206004820152601d60248201527f416464726573733a2063616c6c20746f206e6f6e2d636f6e747261637400000060448201526064016101a6565b600080866001600160a01b031685876040516104d89190610651565b60006040518083038185875af1925050503d8060008114610515576040519150601f19603f3d011682016040523d82523d6000602084013e61051a565b606091505b509150915061052a828286610535565b979650505050505050565b60608315610544575081610406565b8251156105545782518084602001fd5b8160405162461bcd60e51b81526004016101a6919061066d565b80356001600160a01b038116811461058557600080fd5b919050565b60006020828403121561059c57600080fd5b6102d88261056e565b600080604083850312156105b857600080fd5b6105c18361056e565b946020939093013593505050565b634e487b7160e01b600052601160045260246000fd5b808201808211156102db576102db6105cf565b818103818111156102db576102db6105cf565b60006020828403121561061d57600080fd5b8151801515811461040657600080fd5b60005b83811015610648578181015183820152602001610630565b50506000910152565b6000825161066381846020870161062d565b9190910192915050565b602081526000825180602084015261068c81604085016020870161062d565b601f01601f1916919091016040019291505056fea2646970667358221220b992c5b014fb4ecc6571af38bdd76fee7c4b4f04b5379e694282d0bbf6891fb264736f6c63430008110033fee62a9eec0be50eb061c711990ef0f1e17b40ea131d9347b0468acdaf8bf243a2646970667358221220f3aadc20338cda05c3db58396f063e5bebcf07be8d402f1eac461032ddfe386a64736f6c63430008110033"
}