{
  "address": "0x3516a712686cDB28B008f12dAB067d3EbdE1d55B",
  "abi": [
    {
      "anonymous": false,
      "inputs": [
        {
          "indexed": true,
          "internalType": "address",
          "name": "owner",
          "type": "address"
        },
        {
          "indexed": true,
          "internalType": "address",
          "name": "spender",
          "type": "address"
        },
        {
          "indexed": false,
          "internalType": "uint256",
          "name": "value",
          "type": "uint256"
        }
      ],
      "name": "Approval",
      "type": "event"
    },
    {
      "anonymous": false,
      "inputs": [
        {
          "indexed": true,
          "internalType": "address",
          "name": "previousOwner",
          "type": "address"
        },
        {
          "indexed": true,
          "internalType": "address",
          "name": "newOwner",
          "type": "address"
        }
      ],
      "name": "OwnershipTransferred",
      "type": "event"
    },
    {
      "anonymous": false,
      "inputs": [
        {
          "indexed": false,
          "internalType": "uint256",
          "name": "id",
          "type": "uint256"
        }
      ],
      "name": "Snapshot",
      "type": "event"
    },
    {
      "anonymous": false,
      "inputs": [
        {
          "indexed": true,
          "internalType": "address",
          "name": "from",
          "type": "address"
        },
        {
          "indexed": true,
          "internalType": "address",
          "name": "to",
          "type": "address"
        },
        {
          "indexed": false,
          "internalType": "uint256",
          "name": "value",
          "type": "uint256"
        }
      ],
      "name": "Transfer",
      "type": "event"
    },
    {
      "inputs": [
        {
          "internalType": "address",
          "name": "owner",
          "type": "address"
        },
        {
          "internalType": "address",
          "name": "spender",
          "type": "address"
        }
      ],
      "name": "allowance",
      "outputs": [
        {
          "internalType": "uint256",
          "name": "",
          "type": "uint256"
        }
      ],
      "stateMutability": "view",
      "type": "function"
    },
    {
      "inputs": [
        {
          "internalType": "address",
          "name": "spender",
          "type": "address"
        },
        {
          "internalType": "uint256",
          "name": "amount",
          "type": "uint256"
        }
      ],
      "name": "approve",
      "outputs": [
        {
          "internalType": "bool",
          "name": "",
          "type": "bool"
        }
      ],
      "stateMutability": "nonpayable",
      "type": "function"
    },
    {
      "inputs": [
        {
          "internalType": "address",
          "name": "account",
          "type": "address"
        }
      ],
      "name": "balanceOf",
      "outputs": [
        {
          "internalType": "uint256",
          "name": "",
          "type": "uint256"
        }
      ],
      "stateMutability": "view",
      "type": "function"
    },
    {
      "inputs": [
        {
          "internalType": "address",
          "name": "account",
          "type": "address"
        },
        {
          "internalType": "uint256",
          "name": "snapshotId",
          "type": "uint256"
        }
      ],
      "name": "balanceOfAt",
      "outputs": [
        {
          "internalType": "uint256",
          "name": "",
          "type": "uint256"
        }
      ],
      "stateMutability": "view",
      "type": "function"
    },
    {
      "inputs": [
        {
          "internalType": "address",
          "name": "to",
          "type": "address"
        },
        {
          "internalType": "uint256",
          "name": "amount",
          "type": "uint256"
        }
      ],
      "name": "burn",
      "outputs": [],
      "stateMutability": "nonpayable",
      "type": "function"
    },
    {
      "inputs": [],
      "name": "decimals",
      "outputs": [
        {
          "internalType": "uint8",
          "name": "",
          "type": "uint8"
        }
      ],
      "stateMutability": "view",
      "type": "function"
    },
    {
      "inputs": [
        {
          "internalType": "address",
          "name": "spender",
          "type": "address"
        },
        {
          "internalType": "uint256",
          "name": "subtractedValue",
          "type": "uint256"
        }
      ],
      "name": "decreaseAllowance",
      "outputs": [
        {
          "internalType": "bool",
          "name": "",
          "type": "bool"
        }
      ],
      "stateMutability": "nonpayable",
      "type": "function"
    },
    {
      "inputs": [],
      "name": "getCurrentSnapshotId",
      "outputs": [
        {
          "internalType": "uint256",
          "name": "",
          "type": "uint256"
        }
      ],
      "stateMutability": "view",
      "type": "function"
    },
    {
      "inputs": [],
      "name": "getTotalHolders",
      "outputs": [
        {
          "internalType": "uint256",
          "name": "",
          "type": "uint256"
        }
      ],
      "stateMutability": "view",
      "type": "function"
    },
    {
      "inputs": [
        {
          "internalType": "address",
          "name": "spender",
          "type": "address"
        },
        {
          "internalType": "uint256",
          "name": "addedValue",
          "type": "uint256"
        }
      ],
      "name": "increaseAllowance",
      "outputs": [
        {
          "internalType": "bool",
          "name": "",
          "type": "bool"
        }
      ],
      "stateMutability": "nonpayable",
      "type": "function"
    },
    {
      "inputs": [
        {
          "internalType": "string",
          "name": "name",
          "type": "string"
        },
        {
          "internalType": "string",
          "name": "symbol",
          "type": "string"
        }
      ],
      "name": "initialize",
      "outputs": [],
      "stateMutability": "nonpayable",
      "type": "function"
    },
    {
      "inputs": [
        {
          "internalType": "address",
          "name": "to",
          "type": "address"
        },
        {
          "internalType": "uint256",
          "name": "amount",
          "type": "uint256"
        }
      ],
      "name": "mint",
      "outputs": [],
      "stateMutability": "nonpayable",
      "type": "function"
    },
    {
      "inputs": [],
      "name": "name",
      "outputs": [
        {
          "internalType": "string",
          "name": "",
          "type": "string"
        }
      ],
      "stateMutability": "view",
      "type": "function"
    },
    {
      "inputs": [],
      "name": "owner",
      "outputs": [
        {
          "internalType": "address",
          "name": "",
          "type": "address"
        }
      ],
      "stateMutability": "view",
      "type": "function"
    },
    {
      "inputs": [],
      "name": "renounceOwnership",
      "outputs": [],
      "stateMutability": "nonpayable",
      "type": "function"
    },
    {
      "inputs": [],
      "name": "snapshot",
      "outputs": [],
      "stateMutability": "nonpayable",
      "type": "function"
    },
    {
      "inputs": [],
      "name": "symbol",
      "outputs": [
        {
          "internalType": "string",
          "name": "",
          "type": "string"
        }
      ],
      "stateMutability": "view",
      "type": "function"
    },
    {
      "inputs": [],
      "name": "totalHolders",
      "outputs": [
        {
          "internalType": "uint256",
          "name": "",
          "type": "uint256"
        }
      ],
      "stateMutability": "view",
      "type": "function"
    },
    {
      "inputs": [],
      "name": "totalSupply",
      "outputs": [
        {
          "internalType": "uint256",
          "name": "",
          "type": "uint256"
        }
      ],
      "stateMutability": "view",
      "type": "function"
    },
    {
      "inputs": [
        {
          "internalType": "uint256",
          "name": "snapshotId",
          "type": "uint256"
        }
      ],
      "name": "totalSupplyAt",
      "outputs": [
        {
          "internalType": "uint256",
          "name": "",
          "type": "uint256"
        }
      ],
      "stateMutability": "view",
      "type": "function"
    },
    {
      "inputs": [
        {
          "internalType": "address",
          "name": "recipient",
          "type": "address"
        },
        {
          "internalType": "uint256",
          "name": "amount",
          "type": "uint256"
        }
      ],
      "name": "transfer",
      "outputs": [
        {
          "internalType": "bool",
          "name": "",
          "type": "bool"
        }
      ],
      "stateMutability": "nonpayable",
      "type": "function"
    },
    {
      "inputs": [
        {
          "internalType": "address",
          "name": "sender",
          "type": "address"
        },
        {
          "internalType": "address",
          "name": "recipient",
          "type": "address"
        },
        {
          "internalType": "uint256",
          "name": "amount",
          "type": "uint256"
        }
      ],
      "name": "transferFrom",
      "outputs": [
        {
          "internalType": "bool",
          "name": "",
          "type": "bool"
        }
      ],
      "stateMutability": "nonpayable",
      "type": "function"
    },
    {
      "inputs": [
        {
          "internalType": "address",
          "name": "newOwner",
          "type": "address"
        }
      ],
      "name": "transferOwnership",
      "outputs": [],
      "stateMutability": "nonpayable",
      "type": "function"
    }
  ],
  "transactionHash": "0x19b06d13b2615f03fe52b05ea682fad6e2a22f37417aa7957489299f974df3ed",
  "numDeployments": 1,
  "bytecode": "0x608060405234801561001057600080fd5b50611852806100206000396000f3fe608060405234801561001057600080fd5b506004361061014d5760003560e01c80635439ad86116100c3578063981b24d01161007c578063981b24d01461028a5780639dc29fac1461029d578063a457c2d7146102b0578063a9059cbb146102c3578063dd62ed3e146102d6578063f2fde38b1461030f57600080fd5b80635439ad861461022657806370a082311461022e578063715018a6146102575780638da5cb5b1461025f57806395d89b411461027a5780639711715a1461028257600080fd5b8063313ce56711610115578063313ce567146101c057806339509351146101cf57806340c10f19146101e25780634cd88b76146101f75780634ee2cd7e1461020a57806353d74fdf1461021d57600080fd5b806306fdde0314610152578063095ea7b31461017057806318160ddd1461019357806323b872dd146101a55780632b3c0db3146101b8575b600080fd5b61015a610322565b60405161016791906113a4565b60405180910390f35b61018361017e366004611409565b6103b4565b6040519015158152602001610167565b6067545b604051908152602001610167565b6101836101b3366004611433565b6103cb565b60c954610197565b60405160128152602001610167565b6101836101dd366004611409565b61047a565b6101f56101f0366004611409565b6104b6565b005b6101f5610205366004611512565b610501565b610197610218366004611409565b610580565b61019760c95481565b6101976105d9565b61019761023c366004611576565b6001600160a01b031660009081526065602052604090205490565b6101f56105e8565b6033546040516001600160a01b039091168152602001610167565b61015a61061e565b6101f561062d565b610197610298366004611591565b610638565b6101f56102ab366004611409565b610663565b6101836102be366004611409565b6106a9565b6101836102d1366004611409565b610742565b6101976102e43660046115aa565b6001600160a01b03918216600090815260666020908152604080832093909416825291909152205490565b6101f561031d366004611576565b61074f565b606060688054610331906115dd565b80601f016020809104026020016040519081016040528092919081815260200182805461035d906115dd565b80156103aa5780601f1061037f576101008083540402835291602001916103aa565b820191906000526020600020905b81548152906001019060200180831161038d57829003601f168201915b5050505050905090565b60006103c13384846107e7565b5060015b92915050565b60006103d884848461090b565b6001600160a01b0384166000908152606660209081526040808320338452909152902054828110156104625760405162461bcd60e51b815260206004820152602860248201527f45524332303a207472616e7366657220616d6f756e74206578636565647320616044820152676c6c6f77616e636560c01b60648201526084015b60405180910390fd5b61046f85338584036107e7565b506001949350505050565b3360008181526066602090815260408083206001600160a01b038716845290915281205490916103c19185906104b190869061162d565b6107e7565b6033546001600160a01b031633146104e05760405162461bcd60e51b815260040161045990611640565b6104e982610ae5565b506104f48282610b2b565b6104fc610c16565b505050565b600054610100900460ff168061051a575060005460ff16155b6105365760405162461bcd60e51b815260040161045990611675565b600054610100900460ff16158015610558576000805461ffff19166101011790555b6105628383610c70565b61056a610cd9565b80156104fc576000805461ff0019169055505050565b6001600160a01b0382166000908152609760205260408120819081906105a7908590610d54565b91509150816105ce576001600160a01b0385166000908152606560205260409020546105d0565b805b95945050505050565b60006105e3610e4a565b905090565b6033546001600160a01b031633146106125760405162461bcd60e51b815260040161045990611640565b61061c6000610e55565b565b606060698054610331906115dd565b610635610c16565b50565b6000806000610648846098610d54565b91509150816106595760675461065b565b805b949350505050565b6033546001600160a01b0316331461068d5760405162461bcd60e51b815260040161045990611640565b6106978282610ea7565b6106a082611001565b506104fc610c16565b3360009081526066602090815260408083206001600160a01b03861684529091528120548281101561072b5760405162461bcd60e51b815260206004820152602560248201527f45524332303a2064656372656173656420616c6c6f77616e63652062656c6f77604482015264207a65726f60d81b6064820152608401610459565b61073833858584036107e7565b5060019392505050565b60006103c133848461090b565b6033546001600160a01b031633146107795760405162461bcd60e51b815260040161045990611640565b6001600160a01b0381166107de5760405162461bcd60e51b815260206004820152602660248201527f4f776e61626c653a206e6577206f776e657220697320746865207a65726f206160448201526564647265737360d01b6064820152608401610459565b61063581610e55565b6001600160a01b0383166108495760405162461bcd60e51b8152602060048201526024808201527f45524332303a20617070726f76652066726f6d20746865207a65726f206164646044820152637265737360e01b6064820152608401610459565b6001600160a01b0382166108aa5760405162461bcd60e51b815260206004820152602260248201527f45524332303a20617070726f766520746f20746865207a65726f206164647265604482015261737360f01b6064820152608401610459565b6001600160a01b0383811660008181526066602090815260408083209487168084529482529182902085905590518481527f8c5be1e5ebec7d5bd14f71427d1e84f3dd0314c0f7b2291e5b200ac8c7c3b925910160405180910390a3505050565b6001600160a01b03831661096f5760405162461bcd60e51b815260206004820152602560248201527f45524332303a207472616e736665722066726f6d20746865207a65726f206164604482015264647265737360d81b6064820152608401610459565b6001600160a01b0382166109d15760405162461bcd60e51b815260206004820152602360248201527f45524332303a207472616e7366657220746f20746865207a65726f206164647260448201526265737360e81b6064820152608401610459565b6109dc83838361103c565b6001600160a01b03831660009081526065602052604090205481811015610a545760405162461bcd60e51b815260206004820152602660248201527f45524332303a207472616e7366657220616d6f756e7420657863656564732062604482015265616c616e636560d01b6064820152608401610459565b6001600160a01b03808516600090815260656020526040808220858503905591851681529081208054849290610a8b90849061162d565b92505081905550826001600160a01b0316846001600160a01b03167fddf252ad1be2c89b69c2b068fc378daa952ba7f163c4a11628f55a4df523b3ef84604051610ad791815260200190565b60405180910390a350505050565b6001600160a01b038116600090815260656020526040812054600003610b1e5760c954610b13906001611084565b60c955506001919050565b506000919050565b919050565b6001600160a01b038216610b815760405162461bcd60e51b815260206004820152601f60248201527f45524332303a206d696e7420746f20746865207a65726f2061646472657373006044820152606401610459565b610b8d6000838361103c565b8060676000828254610b9f919061162d565b90915550506001600160a01b03821660009081526065602052604081208054839290610bcc90849061162d565b90915550506040518181526001600160a01b038316906000907fddf252ad1be2c89b69c2b068fc378daa952ba7f163c4a11628f55a4df523b3ef9060200160405180910390a35050565b6000610c26609a80546001019055565b6000610c30610e4a565b90507f8030e83b04d87bef53480e26263266d6ca66863aa8506aca6f2559d18aa1cb6781604051610c6391815260200190565b60405180910390a1919050565b600054610100900460ff1680610c89575060005460ff16155b610ca55760405162461bcd60e51b815260040161045990611675565b600054610100900460ff16158015610cc7576000805461ffff19166101011790555b610ccf611097565b61056a8383611101565b600054610100900460ff1680610cf2575060005460ff16155b610d0e5760405162461bcd60e51b815260040161045990611675565b600054610100900460ff16158015610d30576000805461ffff19166101011790555b610d38611097565b610d40611188565b8015610635576000805461ff001916905550565b60008060008411610da05760405162461bcd60e51b815260206004820152601660248201527504552433230536e617073686f743a20696420697320360541b6044820152606401610459565b610da8610e4a565b841115610df75760405162461bcd60e51b815260206004820152601d60248201527f4552433230536e617073686f743a206e6f6e6578697374656e742069640000006044820152606401610459565b6000610e0384866111e8565b84549091508103610e1b576000809250925050610e43565b6001846001018281548110610e3257610e326116c3565b906000526020600020015492509250505b9250929050565b60006105e3609a5490565b603380546001600160a01b038381166001600160a01b0319831681179093556040519116919082907f8be0079c531659141344cd1fd0a4f28419497f9722a3daafe3b4186f6b6457e090600090a35050565b6001600160a01b038216610f075760405162461bcd60e51b815260206004820152602160248201527f45524332303a206275726e2066726f6d20746865207a65726f206164647265736044820152607360f81b6064820152608401610459565b610f138260008361103c565b6001600160a01b03821660009081526065602052604090205481811015610f875760405162461bcd60e51b815260206004820152602260248201527f45524332303a206275726e20616d6f756e7420657863656564732062616c616e604482015261636560f01b6064820152608401610459565b6001600160a01b0383166000908152606560205260408120838303905560678054849290610fb69084906116d9565b90915550506040518281526000906001600160a01b038516907fddf252ad1be2c89b69c2b068fc378daa952ba7f163c4a11628f55a4df523b3ef9060200160405180910390a3505050565b6001600160a01b0381166000908152606560205260408120541580156110295750600060c954115b15610b1e5760c954610b139060016112ad565b6001600160a01b03831661105b57611053826112b9565b6104fc6112ec565b6001600160a01b03821661107257611053836112b9565b61107b836112b9565b6104fc826112b9565b6000611090828461162d565b9392505050565b600054610100900460ff16806110b0575060005460ff16155b6110cc5760405162461bcd60e51b815260040161045990611675565b600054610100900460ff16158015610d40576000805461ffff19166101011790558015610635576000805461ff001916905550565b600054610100900460ff168061111a575060005460ff16155b6111365760405162461bcd60e51b815260040161045990611675565b600054610100900460ff16158015611158576000805461ffff19166101011790555b6068611164848261173a565b506069611171838261173a565b5080156104fc576000805461ff0019169055505050565b600054610100900460ff16806111a1575060005460ff16155b6111bd5760405162461bcd60e51b815260040161045990611675565b600054610100900460ff161580156111df576000805461ffff19166101011790555b610d4033610e55565b815460009081036111fb575060006103c5565b82546000905b8082101561125757600061121583836112fa565b90508486828154811061122a5761122a6116c3565b9060005260206000200154111561124357809150611251565b61124e81600161162d565b92505b50611201565b60008211801561128c5750838561126f6001856116d9565b8154811061127f5761127f6116c3565b9060005260206000200154145b156112a55761129c6001836116d9565b925050506103c5565b5090506103c5565b600061109082846116d9565b6001600160a01b03811660009081526097602090815260408083206065909252909120546106359190611315565b611315565b61061c60986112e760675490565b600061130960028484186117fa565b6110909084841661162d565b600061131f610e4a565b90508061132b8461135f565b10156104fc578254600180820185556000858152602080822090930193909355938401805494850181558252902090910155565b8054600090810361137257506000919050565b81548290611382906001906116d9565b81548110611392576113926116c3565b90600052602060002001549050919050565b600060208083528351808285015260005b818110156113d1578581018301518582016040015282016113b5565b506000604082860101526040601f19601f8301168501019250505092915050565b80356001600160a01b0381168114610b2657600080fd5b6000806040838503121561141c57600080fd5b611425836113f2565b946020939093013593505050565b60008060006060848603121561144857600080fd5b611451846113f2565b925061145f602085016113f2565b9150604084013590509250925092565b634e487b7160e01b600052604160045260246000fd5b600082601f83011261149657600080fd5b813567ffffffffffffffff808211156114b1576114b161146f565b604051601f8301601f19908116603f011681019082821181831017156114d9576114d961146f565b816040528381528660208588010111156114f257600080fd5b836020870160208301376000602085830101528094505050505092915050565b6000806040838503121561152557600080fd5b823567ffffffffffffffff8082111561153d57600080fd5b61154986838701611485565b9350602085013591508082111561155f57600080fd5b5061156c85828601611485565b9150509250929050565b60006020828403121561158857600080fd5b611090826113f2565b6000602082840312156115a357600080fd5b5035919050565b600080604083850312156115bd57600080fd5b6115c6836113f2565b91506115d4602084016113f2565b90509250929050565b600181811c908216806115f157607f821691505b60208210810361161157634e487b7160e01b600052602260045260246000fd5b50919050565b634e487b7160e01b600052601160045260246000fd5b808201808211156103c5576103c5611617565b6020808252818101527f4f776e61626c653a2063616c6c6572206973206e6f7420746865206f776e6572604082015260600190565b6020808252602e908201527f496e697469616c697a61626c653a20636f6e747261637420697320616c72656160408201526d191e481a5b9a5d1a585b1a5e995960921b606082015260800190565b634e487b7160e01b600052603260045260246000fd5b818103818111156103c5576103c5611617565b601f8211156104fc57600081815260208120601f850160051c810160208610156117135750805b601f850160051c820191505b818110156117325782815560010161171f565b505050505050565b815167ffffffffffffffff8111156117545761175461146f565b6117688161176284546115dd565b846116ec565b602080601f83116001811461179d57600084156117855750858301515b600019600386901b1c1916600185901b178555611732565b600085815260208120601f198616915b828110156117cc578886015182559484019460019091019084016117ad565b50858210156117ea5787850151600019600388901b60f8161c191681555b5050505050600190811b01905550565b60008261181757634e487b7160e01b600052601260045260246000fd5b50049056fea2646970667358221220ea95e203f95a1bc14f870b3433c904d25d30594fa4968852954c777215adc54c64736f6c63430008110033"
}