{
  "address": "0x349b29Cde08aB6e7722303c07beab570dFb5eb25",
  "abi": [
    {
      "anonymous": false,
      "inputs": [
        {
          "indexed": true,
          "internalType": "address",
          "name": "owner",
          "type": "address"
        },
        {
          "indexed": true,
          "internalType": "address",
          "name": "spender",
          "type": "address"
        },
        {
          "indexed": false,
          "internalType": "uint256",
          "name": "value",
          "type": "uint256"
        }
      ],
      "name": "Approval",
      "type": "event"
    },
    {
      "anonymous": false,
      "inputs": [
        {
          "indexed": true,
          "internalType": "address",
          "name": "previousOwner",
          "type": "address"
        },
        {
          "indexed": true,
          "internalType": "address",
          "name": "newOwner",
          "type": "address"
        }
      ],
      "name": "OwnershipTransferred",
      "type": "event"
    },
    {
      "anonymous": false,
      "inputs": [
        {
          "indexed": false,
          "internalType": "uint256",
          "name": "id",
          "type": "uint256"
        }
      ],
      "name": "Snapshot",
      "type": "event"
    },
    {
      "anonymous": false,
      "inputs": [
        {
          "indexed": true,
          "internalType": "address",
          "name": "from",
          "type": "address"
        },
        {
          "indexed": true,
          "internalType": "address",
          "name": "to",
          "type": "address"
        },
        {
          "indexed": false,
          "internalType": "uint256",
          "name": "value",
          "type": "uint256"
        }
      ],
      "name": "Transfer",
      "type": "event"
    },
    {
      "inputs": [
        {
          "internalType": "address",
          "name": "owner",
          "type": "address"
        },
        {
          "internalType": "address",
          "name": "spender",
          "type": "address"
        }
      ],
      "name": "allowance",
      "outputs": [
        {
          "internalType": "uint256",
          "name": "",
          "type": "uint256"
        }
      ],
      "stateMutability": "view",
      "type": "function"
    },
    {
      "inputs": [
        {
          "internalType": "address",
          "name": "spender",
          "type": "address"
        },
        {
          "internalType": "uint256",
          "name": "amount",
          "type": "uint256"
        }
      ],
      "name": "approve",
      "outputs": [
        {
          "internalType": "bool",
          "name": "",
          "type": "bool"
        }
      ],
      "stateMutability": "nonpayable",
      "type": "function"
    },
    {
      "inputs": [
        {
          "internalType": "address",
          "name": "account",
          "type": "address"
        }
      ],
      "name": "balanceOf",
      "outputs": [
        {
          "internalType": "uint256",
          "name": "",
          "type": "uint256"
        }
      ],
      "stateMutability": "view",
      "type": "function"
    },
    {
      "inputs": [
        {
          "internalType": "address",
          "name": "account",
          "type": "address"
        },
        {
          "internalType": "uint256",
          "name": "snapshotId",
          "type": "uint256"
        }
      ],
      "name": "balanceOfAt",
      "outputs": [
        {
          "internalType": "uint256",
          "name": "",
          "type": "uint256"
        }
      ],
      "stateMutability": "view",
      "type": "function"
    },
    {
      "inputs": [
        {
          "internalType": "address",
          "name": "to",
          "type": "address"
        },
        {
          "internalType": "uint256",
          "name": "amount",
          "type": "uint256"
        }
      ],
      "name": "burn",
      "outputs": [],
      "stateMutability": "nonpayable",
      "type": "function"
    },
    {
      "inputs": [],
      "name": "decimals",
      "outputs": [
        {
          "internalType": "uint8",
          "name": "",
          "type": "uint8"
        }
      ],
      "stateMutability": "view",
      "type": "function"
    },
    {
      "inputs": [
        {
          "internalType": "address",
          "name": "spender",
          "type": "address"
        },
        {
          "internalType": "uint256",
          "name": "subtractedValue",
          "type": "uint256"
        }
      ],
      "name": "decreaseAllowance",
      "outputs": [
        {
          "internalType": "bool",
          "name": "",
          "type": "bool"
        }
      ],
      "stateMutability": "nonpayable",
      "type": "function"
    },
    {
      "inputs": [],
      "name": "getCurrentSnapshotId",
      "outputs": [
        {
          "internalType": "uint256",
          "name": "",
          "type": "uint256"
        }
      ],
      "stateMutability": "view",
      "type": "function"
    },
    {
      "inputs": [],
      "name": "getTotalHolders",
      "outputs": [
        {
          "internalType": "uint256",
          "name": "",
          "type": "uint256"
        }
      ],
      "stateMutability": "view",
      "type": "function"
    },
    {
      "inputs": [
        {
          "internalType": "address",
          "name": "spender",
          "type": "address"
        },
        {
          "internalType": "uint256",
          "name": "addedValue",
          "type": "uint256"
        }
      ],
      "name": "increaseAllowance",
      "outputs": [
        {
          "internalType": "bool",
          "name": "",
          "type": "bool"
        }
      ],
      "stateMutability": "nonpayable",
      "type": "function"
    },
    {
      "inputs": [
        {
          "internalType": "string",
          "name": "name",
          "type": "string"
        },
        {
          "internalType": "string",
          "name": "symbol",
          "type": "string"
        }
      ],
      "name": "initialize",
      "outputs": [],
      "stateMutability": "nonpayable",
      "type": "function"
    },
    {
      "inputs": [
        {
          "internalType": "address",
          "name": "to",
          "type": "address"
        },
        {
          "internalType": "uint256",
          "name": "amount",
          "type": "uint256"
        }
      ],
      "name": "mint",
      "outputs": [],
      "stateMutability": "nonpayable",
      "type": "function"
    },
    {
      "inputs": [],
      "name": "name",
      "outputs": [
        {
          "internalType": "string",
          "name": "",
          "type": "string"
        }
      ],
      "stateMutability": "view",
      "type": "function"
    },
    {
      "inputs": [],
      "name": "owner",
      "outputs": [
        {
          "internalType": "address",
          "name": "",
          "type": "address"
        }
      ],
      "stateMutability": "view",
      "type": "function"
    },
    {
      "inputs": [],
      "name": "renounceOwnership",
      "outputs": [],
      "stateMutability": "nonpayable",
      "type": "function"
    },
    {
      "inputs": [],
      "name": "snapshot",
      "outputs": [],
      "stateMutability": "nonpayable",
      "type": "function"
    },
    {
      "inputs": [],
      "name": "symbol",
      "outputs": [
        {
          "internalType": "string",
          "name": "",
          "type": "string"
        }
      ],
      "stateMutability": "view",
      "type": "function"
    },
    {
      "inputs": [],
      "name": "totalHolders",
      "outputs": [
        {
          "internalType": "uint256",
          "name": "",
          "type": "uint256"
        }
      ],
      "stateMutability": "view",
      "type": "function"
    },
    {
      "inputs": [],
      "name": "totalSupply",
      "outputs": [
        {
          "internalType": "uint256",
          "name": "",
          "type": "uint256"
        }
      ],
      "stateMutability": "view",
      "type": "function"
    },
    {
      "inputs": [
        {
          "internalType": "uint256",
          "name": "snapshotId",
          "type": "uint256"
        }
      ],
      "name": "totalSupplyAt",
      "outputs": [
        {
          "internalType": "uint256",
          "name": "",
          "type": "uint256"
        }
      ],
      "stateMutability": "view",
      "type": "function"
    },
    {
      "inputs": [
        {
          "internalType": "address",
          "name": "recipient",
          "type": "address"
        },
        {
          "internalType": "uint256",
          "name": "amount",
          "type": "uint256"
        }
      ],
      "name": "transfer",
      "outputs": [
        {
          "internalType": "bool",
          "name": "",
          "type": "bool"
        }
      ],
      "stateMutability": "nonpayable",
      "type": "function"
    },
    {
      "inputs": [
        {
          "internalType": "address",
          "name": "sender",
          "type": "address"
        },
        {
          "internalType": "address",
          "name": "recipient",
          "type": "address"
        },
        {
          "internalType": "uint256",
          "name": "amount",
          "type": "uint256"
        }
      ],
      "name": "transferFrom",
      "outputs": [
        {
          "internalType": "bool",
          "name": "",
          "type": "bool"
        }
      ],
      "stateMutability": "nonpayable",
      "type": "function"
    },
    {
      "inputs": [
        {
          "internalType": "address",
          "name": "newOwner",
          "type": "address"
        }
      ],
      "name": "transferOwnership",
      "outputs": [],
      "stateMutability": "nonpayable",
      "type": "function"
    }
  ],
  "transactionHash": "0x0b3fe6cfad05d230d151b579c539b2d815f0d896d371eb7ece546836cf971949",
  "args": [],
  "numDeployments": 4,
  "solcInputHash": "cdcf799e7c1bec385c0950b5a0e6c88d",
  "bytecode": "0x608060405234801561001057600080fd5b506117f6806100206000396000f3fe608060405234801561001057600080fd5b506004361061014d5760003560e01c80635439ad86116100c3578063981b24d01161007c578063981b24d01461028a5780639dc29fac1461029d578063a457c2d7146102b0578063a9059cbb146102c3578063dd62ed3e146102d6578063f2fde38b1461030f57600080fd5b80635439ad861461022657806370a082311461022e578063715018a6146102575780638da5cb5b1461025f57806395d89b411461027a5780639711715a1461028257600080fd5b8063313ce56711610115578063313ce567146101c057806339509351146101cf57806340c10f19146101e25780634cd88b76146101f75780634ee2cd7e1461020a57806353d74fdf1461021d57600080fd5b806306fdde0314610152578063095ea7b31461017057806318160ddd1461019357806323b872dd146101a55780632b3c0db3146101b8575b600080fd5b61015a610322565b6040516101679190611445565b60405180910390f35b61018361017e3660046114b1565b6103b4565b6040519015158152602001610167565b6067545b604051908152602001610167565b6101836101b33660046114db565b6103cb565b60c954610197565b60405160128152602001610167565b6101836101dd3660046114b1565b61047a565b6101f56101f03660046114b1565b6104b6565b005b6101f56102053660046115ba565b610501565b6101976102183660046114b1565b610580565b61019760c95481565b6101976105d9565b61019761023c36600461161e565b6001600160a01b031660009081526065602052604090205490565b6101f56105e8565b6033546040516001600160a01b039091168152602001610167565b61015a61061e565b6101f561062d565b610197610298366004611639565b610638565b6101f56102ab3660046114b1565b610663565b6101836102be3660046114b1565b6106a9565b6101836102d13660046114b1565b610742565b6101976102e4366004611652565b6001600160a01b03918216600090815260666020908152604080832093909416825291909152205490565b6101f561031d36600461161e565b61074f565b60606068805461033190611685565b80601f016020809104026020016040519081016040528092919081815260200182805461035d90611685565b80156103aa5780601f1061037f576101008083540402835291602001916103aa565b820191906000526020600020905b81548152906001019060200180831161038d57829003601f168201915b5050505050905090565b60006103c13384846107e7565b5060015b92915050565b60006103d884848461090b565b6001600160a01b0384166000908152606660209081526040808320338452909152902054828110156104625760405162461bcd60e51b815260206004820152602860248201527f45524332303a207472616e7366657220616d6f756e74206578636565647320616044820152676c6c6f77616e636560c01b60648201526084015b60405180910390fd5b61046f85338584036107e7565b506001949350505050565b3360008181526066602090815260408083206001600160a01b038716845290915281205490916103c19185906104b19086906116d6565b6107e7565b6033546001600160a01b031633146104e05760405162461bcd60e51b8152600401610459906116ee565b6104e982610ae5565b506104f48282610b28565b6104fc610c13565b505050565b600054610100900460ff168061051a575060005460ff16155b6105365760405162461bcd60e51b815260040161045990611723565b600054610100900460ff16158015610558576000805461ffff19166101011790555b6105628383610c6d565b61056a610cd6565b80156104fc576000805461ff0019169055505050565b6001600160a01b0382166000908152609760205260408120819081906105a7908590610d51565b91509150816105ce576001600160a01b0385166000908152606560205260409020546105d0565b805b95945050505050565b60006105e3610e48565b905090565b6033546001600160a01b031633146106125760405162461bcd60e51b8152600401610459906116ee565b61061c6000610e53565b565b60606069805461033190611685565b610635610c13565b50565b6000806000610648846098610d51565b91509150816106595760675461065b565b805b949350505050565b6033546001600160a01b0316331461068d5760405162461bcd60e51b8152600401610459906116ee565b6106978282610ea5565b6106a082610fff565b506104fc610c13565b3360009081526066602090815260408083206001600160a01b03861684529091528120548281101561072b5760405162461bcd60e51b815260206004820152602560248201527f45524332303a2064656372656173656420616c6c6f77616e63652062656c6f77604482015264207a65726f60d81b6064820152608401610459565b61073833858584036107e7565b5060019392505050565b60006103c133848461090b565b6033546001600160a01b031633146107795760405162461bcd60e51b8152600401610459906116ee565b6001600160a01b0381166107de5760405162461bcd60e51b815260206004820152602660248201527f4f776e61626c653a206e6577206f776e657220697320746865207a65726f206160448201526564647265737360d01b6064820152608401610459565b61063581610e53565b6001600160a01b0383166108495760405162461bcd60e51b8152602060048201526024808201527f45524332303a20617070726f76652066726f6d20746865207a65726f206164646044820152637265737360e01b6064820152608401610459565b6001600160a01b0382166108aa5760405162461bcd60e51b815260206004820152602260248201527f45524332303a20617070726f766520746f20746865207a65726f206164647265604482015261737360f01b6064820152608401610459565b6001600160a01b0383811660008181526066602090815260408083209487168084529482529182902085905590518481527f8c5be1e5ebec7d5bd14f71427d1e84f3dd0314c0f7b2291e5b200ac8c7c3b925910160405180910390a3505050565b6001600160a01b03831661096f5760405162461bcd60e51b815260206004820152602560248201527f45524332303a207472616e736665722066726f6d20746865207a65726f206164604482015264647265737360d81b6064820152608401610459565b6001600160a01b0382166109d15760405162461bcd60e51b815260206004820152602360248201527f45524332303a207472616e7366657220746f20746865207a65726f206164647260448201526265737360e81b6064820152608401610459565b6109dc83838361103a565b6001600160a01b03831660009081526065602052604090205481811015610a545760405162461bcd60e51b815260206004820152602660248201527f45524332303a207472616e7366657220616d6f756e7420657863656564732062604482015265616c616e636560d01b6064820152608401610459565b6001600160a01b03808516600090815260656020526040808220858503905591851681529081208054849290610a8b9084906116d6565b92505081905550826001600160a01b0316846001600160a01b03167fddf252ad1be2c89b69c2b068fc378daa952ba7f163c4a11628f55a4df523b3ef84604051610ad791815260200190565b60405180910390a350505050565b6001600160a01b038116600090815260656020526040812054610b1b5760c954610b10906001611082565b60c955506001919050565b506000919050565b919050565b6001600160a01b038216610b7e5760405162461bcd60e51b815260206004820152601f60248201527f45524332303a206d696e7420746f20746865207a65726f2061646472657373006044820152606401610459565b610b8a6000838361103a565b8060676000828254610b9c91906116d6565b90915550506001600160a01b03821660009081526065602052604081208054839290610bc99084906116d6565b90915550506040518181526001600160a01b038316906000907fddf252ad1be2c89b69c2b068fc378daa952ba7f163c4a11628f55a4df523b3ef9060200160405180910390a35050565b6000610c23609a80546001019055565b6000610c2d610e48565b90507f8030e83b04d87bef53480e26263266d6ca66863aa8506aca6f2559d18aa1cb6781604051610c6091815260200190565b60405180910390a1919050565b600054610100900460ff1680610c86575060005460ff16155b610ca25760405162461bcd60e51b815260040161045990611723565b600054610100900460ff16158015610cc4576000805461ffff19166101011790555b610ccc611095565b61056a83836110ff565b600054610100900460ff1680610cef575060005460ff16155b610d0b5760405162461bcd60e51b815260040161045990611723565b600054610100900460ff16158015610d2d576000805461ffff19166101011790555b610d35611095565b610d3d611194565b8015610635576000805461ff001916905550565b60008060008411610d9d5760405162461bcd60e51b815260206004820152601660248201527504552433230536e617073686f743a20696420697320360541b6044820152606401610459565b610da5610e48565b841115610df45760405162461bcd60e51b815260206004820152601d60248201527f4552433230536e617073686f743a206e6f6e6578697374656e742069640000006044820152606401610459565b6000610e0084866111f4565b8454909150811415610e19576000809250925050610e41565b6001846001018281548110610e3057610e30611771565b906000526020600020015492509250505b9250929050565b60006105e3609a5490565b603380546001600160a01b038381166001600160a01b0319831681179093556040519116919082907f8be0079c531659141344cd1fd0a4f28419497f9722a3daafe3b4186f6b6457e090600090a35050565b6001600160a01b038216610f055760405162461bcd60e51b815260206004820152602160248201527f45524332303a206275726e2066726f6d20746865207a65726f206164647265736044820152607360f81b6064820152608401610459565b610f118260008361103a565b6001600160a01b03821660009081526065602052604090205481811015610f855760405162461bcd60e51b815260206004820152602260248201527f45524332303a206275726e20616d6f756e7420657863656564732062616c616e604482015261636560f01b6064820152608401610459565b6001600160a01b0383166000908152606560205260408120838303905560678054849290610fb4908490611787565b90915550506040518281526000906001600160a01b038516907fddf252ad1be2c89b69c2b068fc378daa952ba7f163c4a11628f55a4df523b3ef9060200160405180910390a3505050565b6001600160a01b0381166000908152606560205260408120541580156110275750600060c954115b15610b1b5760c954610b109060016112b7565b6001600160a01b03831661105957611051826112c3565b6104fc6112f6565b6001600160a01b03821661107057611051836112c3565b611079836112c3565b6104fc826112c3565b600061108e82846116d6565b9392505050565b600054610100900460ff16806110ae575060005460ff16155b6110ca5760405162461bcd60e51b815260040161045990611723565b600054610100900460ff16158015610d3d576000805461ffff19166101011790558015610635576000805461ff001916905550565b600054610100900460ff1680611118575060005460ff16155b6111345760405162461bcd60e51b815260040161045990611723565b600054610100900460ff16158015611156576000805461ffff19166101011790555b82516111699060689060208601906113ac565b50815161117d9060699060208501906113ac565b5080156104fc576000805461ff0019169055505050565b600054610100900460ff16806111ad575060005460ff16155b6111c95760405162461bcd60e51b815260040161045990611723565b600054610100900460ff161580156111eb576000805461ffff19166101011790555b610d3d33610e53565b8154600090611205575060006103c5565b82546000905b8082101561126157600061121f8383611304565b90508486828154811061123457611234611771565b9060005260206000200154111561124d5780915061125b565b6112588160016116d6565b92505b5061120b565b60008211801561129657508385611279600185611787565b8154811061128957611289611771565b9060005260206000200154145b156112af576112a6600183611787565b925050506103c5565b5090506103c5565b600061108e8284611787565b6001600160a01b0381166000908152609760209081526040808320606590925290912054610635919061131f565b61131f565b61061c60986112f160675490565b6000611313600284841861179e565b61108e908484166116d6565b6000611329610e48565b90508061133584611369565b10156104fc578254600180820185556000858152602080822090930193909355938401805494850181558252902090910155565b805460009061137a57506000919050565b8154829061138a90600190611787565b8154811061139a5761139a611771565b90600052602060002001549050919050565b8280546113b890611685565b90600052602060002090601f0160209004810192826113da5760008555611420565b82601f106113f357805160ff1916838001178555611420565b82800160010185558215611420579182015b82811115611420578251825591602001919060010190611405565b5061142c929150611430565b5090565b5b8082111561142c5760008155600101611431565b600060208083528351808285015260005b8181101561147257858101830151858201604001528201611456565b81811115611484576000604083870101525b50601f01601f1916929092016040019392505050565b80356001600160a01b0381168114610b2357600080fd5b600080604083850312156114c457600080fd5b6114cd8361149a565b946020939093013593505050565b6000806000606084860312156114f057600080fd5b6114f98461149a565b92506115076020850161149a565b9150604084013590509250925092565b634e487b7160e01b600052604160045260246000fd5b600082601f83011261153e57600080fd5b813567ffffffffffffffff8082111561155957611559611517565b604051601f8301601f19908116603f0116810190828211818310171561158157611581611517565b8160405283815286602085880101111561159a57600080fd5b836020870160208301376000602085830101528094505050505092915050565b600080604083850312156115cd57600080fd5b823567ffffffffffffffff808211156115e557600080fd5b6115f18683870161152d565b9350602085013591508082111561160757600080fd5b506116148582860161152d565b9150509250929050565b60006020828403121561163057600080fd5b61108e8261149a565b60006020828403121561164b57600080fd5b5035919050565b6000806040838503121561166557600080fd5b61166e8361149a565b915061167c6020840161149a565b90509250929050565b600181811c9082168061169957607f821691505b602082108114156116ba57634e487b7160e01b600052602260045260246000fd5b50919050565b634e487b7160e01b600052601160045260246000fd5b600082198211156116e9576116e96116c0565b500190565b6020808252818101527f4f776e61626c653a2063616c6c6572206973206e6f7420746865206f776e6572604082015260600190565b6020808252602e908201527f496e697469616c697a61626c653a20636f6e747261637420697320616c72656160408201526d191e481a5b9a5d1a585b1a5e995960921b606082015260800190565b634e487b7160e01b600052603260045260246000fd5b600082821015611799576117996116c0565b500390565b6000826117bb57634e487b7160e01b600052601260045260246000fd5b50049056fea26469706673582212203a3a715dac2ac549b622bf12c8093c2fcaac8ee79a2234881cc63a7dfd59472664736f6c63430008080033",
  "devdoc": {
    "kind": "dev",
    "methods": {
      "allowance(address,address)": {
        "details": "See {IERC20-allowance}."
      },
      "approve(address,uint256)": {
        "details": "See {IERC20-approve}. Requirements: - `spender` cannot be the zero address."
      },
      "balanceOf(address)": {
        "details": "See {IERC20-balanceOf}."
      },
      "balanceOfAt(address,uint256)": {
        "details": "Retrieves the balance of `account` at the time `snapshotId` was created."
      },
      "decimals()": {
        "details": "Returns the number of decimals used to get its user representation. For example, if `decimals` equals `2`, a balance of `505` tokens should be displayed to a user as `5.05` (`505 / 10 ** 2`). Tokens usually opt for a value of 18, imitating the relationship between Ether and Wei. This is the value {ERC20} uses, unless this function is overridden; NOTE: This information is only used for _display_ purposes: it in no way affects any of the arithmetic of the contract, including {IERC20-balanceOf} and {IERC20-transfer}."
      },
      "decreaseAllowance(address,uint256)": {
        "details": "Atomically decreases the allowance granted to `spender` by the caller. This is an alternative to {approve} that can be used as a mitigation for problems described in {IERC20-approve}. Emits an {Approval} event indicating the updated allowance. Requirements: - `spender` cannot be the zero address. - `spender` must have allowance for the caller of at least `subtractedValue`."
      },
      "increaseAllowance(address,uint256)": {
        "details": "Atomically increases the allowance granted to `spender` by the caller. This is an alternative to {approve} that can be used as a mitigation for problems described in {IERC20-approve}. Emits an {Approval} event indicating the updated allowance. Requirements: - `spender` cannot be the zero address."
      },
      "name()": {
        "details": "Returns the name of the token."
      },
      "owner()": {
        "details": "Returns the address of the current owner."
      },
      "renounceOwnership()": {
        "details": "Leaves the contract without owner. It will not be possible to call `onlyOwner` functions anymore. Can only be called by the current owner. NOTE: Renouncing ownership will leave the contract without an owner, thereby removing any functionality that is only available to the owner."
      },
      "symbol()": {
        "details": "Returns the symbol of the token, usually a shorter version of the name."
      },
      "totalSupply()": {
        "details": "See {IERC20-totalSupply}."
      },
      "totalSupplyAt(uint256)": {
        "details": "Retrieves the total supply at the time `snapshotId` was created."
      },
      "transfer(address,uint256)": {
        "details": "See {IERC20-transfer}. Requirements: - `recipient` cannot be the zero address. - the caller must have a balance of at least `amount`."
      },
      "transferFrom(address,address,uint256)": {
        "details": "See {IERC20-transferFrom}. Emits an {Approval} event indicating the updated allowance. This is not required by the EIP. See the note at the beginning of {ERC20}. Requirements: - `sender` and `recipient` cannot be the zero address. - `sender` must have a balance of at least `amount`. - the caller must have allowance for ``sender``'s tokens of at least `amount`."
      },
      "transferOwnership(address)": {
        "details": "Transfers ownership of the contract to a new account (`newOwner`). Can only be called by the current owner."
      }
    },
    "title": "ERC20SnapshotRep",
    "version": 1
  },
  "userdoc": {
    "kind": "user",
    "methods": {},
    "version": 1
  },
  "storageLayout": {
    "storage": [
      {
        "astId": 145,
        "contract": "contracts/utils/ERC20/ERC20SnapshotRep.sol:ERC20SnapshotRep",
        "label": "_initialized",
        "offset": 0,
        "slot": "0",
        "type": "t_bool"
      },
      {
        "astId": 148,
        "contract": "contracts/utils/ERC20/ERC20SnapshotRep.sol:ERC20SnapshotRep",
        "label": "_initializing",
        "offset": 1,
        "slot": "0",
        "type": "t_bool"
      },
      {
        "astId": 1811,
        "contract": "contracts/utils/ERC20/ERC20SnapshotRep.sol:ERC20SnapshotRep",
        "label": "__gap",
        "offset": 0,
        "slot": "1",
        "type": "t_array(t_uint256)50_storage"
      },
      {
        "astId": 10,
        "contract": "contracts/utils/ERC20/ERC20SnapshotRep.sol:ERC20SnapshotRep",
        "label": "_owner",
        "offset": 0,
        "slot": "51",
        "type": "t_address"
      },
      {
        "astId": 124,
        "contract": "contracts/utils/ERC20/ERC20SnapshotRep.sol:ERC20SnapshotRep",
        "label": "__gap",
        "offset": 0,
        "slot": "52",
        "type": "t_array(t_uint256)49_storage"
      },
      {
        "astId": 204,
        "contract": "contracts/utils/ERC20/ERC20SnapshotRep.sol:ERC20SnapshotRep",
        "label": "_balances",
        "offset": 0,
        "slot": "101",
        "type": "t_mapping(t_address,t_uint256)"
      },
      {
        "astId": 210,
        "contract": "contracts/utils/ERC20/ERC20SnapshotRep.sol:ERC20SnapshotRep",
        "label": "_allowances",
        "offset": 0,
        "slot": "102",
        "type": "t_mapping(t_address,t_mapping(t_address,t_uint256))"
      },
      {
        "astId": 212,
        "contract": "contracts/utils/ERC20/ERC20SnapshotRep.sol:ERC20SnapshotRep",
        "label": "_totalSupply",
        "offset": 0,
        "slot": "103",
        "type": "t_uint256"
      },
      {
        "astId": 214,
        "contract": "contracts/utils/ERC20/ERC20SnapshotRep.sol:ERC20SnapshotRep",
        "label": "_name",
        "offset": 0,
        "slot": "104",
        "type": "t_string_storage"
      },
      {
        "astId": 216,
        "contract": "contracts/utils/ERC20/ERC20SnapshotRep.sol:ERC20SnapshotRep",
        "label": "_symbol",
        "offset": 0,
        "slot": "105",
        "type": "t_string_storage"
      },
      {
        "astId": 757,
        "contract": "contracts/utils/ERC20/ERC20SnapshotRep.sol:ERC20SnapshotRep",
        "label": "__gap",
        "offset": 0,
        "slot": "106",
        "type": "t_array(t_uint256)45_storage"
      },
      {
        "astId": 885,
        "contract": "contracts/utils/ERC20/ERC20SnapshotRep.sol:ERC20SnapshotRep",
        "label": "_accountBalanceSnapshots",
        "offset": 0,
        "slot": "151",
        "type": "t_mapping(t_address,t_struct(Snapshots)880_storage)"
      },
      {
        "astId": 888,
        "contract": "contracts/utils/ERC20/ERC20SnapshotRep.sol:ERC20SnapshotRep",
        "label": "_totalSupplySnapshots",
        "offset": 0,
        "slot": "152",
        "type": "t_struct(Snapshots)880_storage"
      },
      {
        "astId": 891,
        "contract": "contracts/utils/ERC20/ERC20SnapshotRep.sol:ERC20SnapshotRep",
        "label": "_currentSnapshotId",
        "offset": 0,
        "slot": "154",
        "type": "t_struct(Counter)1818_storage"
      },
      {
        "astId": 1188,
        "contract": "contracts/utils/ERC20/ERC20SnapshotRep.sol:ERC20SnapshotRep",
        "label": "__gap",
        "offset": 0,
        "slot": "155",
        "type": "t_array(t_uint256)46_storage"
      },
      {
        "astId": 13217,
        "contract": "contracts/utils/ERC20/ERC20SnapshotRep.sol:ERC20SnapshotRep",
        "label": "totalHolders",
        "offset": 0,
        "slot": "201",
        "type": "t_uint256"
      }
    ],
    "types": {
      "t_address": {
        "encoding": "inplace",
        "label": "address",
        "numberOfBytes": "20"
      },
      "t_array(t_uint256)45_storage": {
        "base": "t_uint256",
        "encoding": "inplace",
        "label": "uint256[45]",
        "numberOfBytes": "1440"
      },
      "t_array(t_uint256)46_storage": {
        "base": "t_uint256",
        "encoding": "inplace",
        "label": "uint256[46]",
        "numberOfBytes": "1472"
      },
      "t_array(t_uint256)49_storage": {
        "base": "t_uint256",
        "encoding": "inplace",
        "label": "uint256[49]",
        "numberOfBytes": "1568"
      },
      "t_array(t_uint256)50_storage": {
        "base": "t_uint256",
        "encoding": "inplace",
        "label": "uint256[50]",
        "numberOfBytes": "1600"
      },
      "t_array(t_uint256)dyn_storage": {
        "base": "t_uint256",
        "encoding": "dynamic_array",
        "label": "uint256[]",
        "numberOfBytes": "32"
      },
      "t_bool": {
        "encoding": "inplace",
        "label": "bool",
        "numberOfBytes": "1"
      },
      "t_mapping(t_address,t_mapping(t_address,t_uint256))": {
        "encoding": "mapping",
        "key": "t_address",
        "label": "mapping(address => mapping(address => uint256))",
        "numberOfBytes": "32",
        "value": "t_mapping(t_address,t_uint256)"
      },
      "t_mapping(t_address,t_struct(Snapshots)880_storage)": {
        "encoding": "mapping",
        "key": "t_address",
        "label": "mapping(address => struct ERC20SnapshotUpgradeable.Snapshots)",
        "numberOfBytes": "32",
        "value": "t_struct(Snapshots)880_storage"
      },
      "t_mapping(t_address,t_uint256)": {
        "encoding": "mapping",
        "key": "t_address",
        "label": "mapping(address => uint256)",
        "numberOfBytes": "32",
        "value": "t_uint256"
      },
      "t_string_storage": {
        "encoding": "bytes",
        "label": "string",
        "numberOfBytes": "32"
      },
      "t_struct(Counter)1818_storage": {
        "encoding": "inplace",
        "label": "struct CountersUpgradeable.Counter",
        "members": [
          {
            "astId": 1817,
            "contract": "contracts/utils/ERC20/ERC20SnapshotRep.sol:ERC20SnapshotRep",
            "label": "_value",
            "offset": 0,
            "slot": "0",
            "type": "t_uint256"
          }
        ],
        "numberOfBytes": "32"
      },
      "t_struct(Snapshots)880_storage": {
        "encoding": "inplace",
        "label": "struct ERC20SnapshotUpgradeable.Snapshots",
        "members": [
          {
            "astId": 876,
            "contract": "contracts/utils/ERC20/ERC20SnapshotRep.sol:ERC20SnapshotRep",
            "label": "ids",
            "offset": 0,
            "slot": "0",
            "type": "t_array(t_uint256)dyn_storage"
          },
          {
            "astId": 879,
            "contract": "contracts/utils/ERC20/ERC20SnapshotRep.sol:ERC20SnapshotRep",
            "label": "values",
            "offset": 0,
            "slot": "1",
            "type": "t_array(t_uint256)dyn_storage"
          }
        ],
        "numberOfBytes": "64"
      },
      "t_uint256": {
        "encoding": "inplace",
        "label": "uint256",
        "numberOfBytes": "32"
      }
    }
  }
}