{
  "address": "0x58A7d7C15Dcc73E9bEEe4C8c14AD4bFCac7058DC",
  "abi": [
    {
      "anonymous": false,
      "inputs": [
        {
          "indexed": true,
          "internalType": "address",
          "name": "previousOwner",
          "type": "address"
        },
        {
          "indexed": true,
          "internalType": "address",
          "name": "newOwner",
          "type": "address"
        }
      ],
      "name": "OwnershipTransferred",
      "type": "event"
    },
    {
      "anonymous": false,
      "inputs": [
        {
          "indexed": false,
          "internalType": "address",
          "name": "from",
          "type": "address"
        },
        {
          "indexed": false,
          "internalType": "address",
          "name": "to",
          "type": "address"
        },
        {
          "indexed": false,
          "internalType": "bytes4",
          "name": "functionSignature",
          "type": "bytes4"
        },
        {
          "indexed": false,
          "internalType": "uint256",
          "name": "fromTime",
          "type": "uint256"
        },
        {
          "indexed": false,
          "internalType": "uint256",
          "name": "value",
          "type": "uint256"
        }
      ],
      "name": "PermissionSet",
      "type": "event"
    },
    {
      "inputs": [
        {
          "internalType": "address",
          "name": "from",
          "type": "address"
        },
        {
          "internalType": "address",
          "name": "token",
          "type": "address"
        },
        {
          "internalType": "uint256",
          "name": "valueAllowed",
          "type": "uint256"
        },
        {
          "internalType": "uint256",
          "name": "index",
          "type": "uint256"
        }
      ],
      "name": "addERC20Limit",
      "outputs": [],
      "stateMutability": "nonpayable",
      "type": "function"
    },
    {
      "inputs": [
        {
          "internalType": "address",
          "name": "from",
          "type": "address"
        }
      ],
      "name": "checkERC20Limits",
      "outputs": [
        {
          "internalType": "bool",
          "name": "",
          "type": "bool"
        }
      ],
      "stateMutability": "view",
      "type": "function"
    },
    {
      "inputs": [
        {
          "internalType": "address",
          "name": "",
          "type": "address"
        },
        {
          "internalType": "address",
          "name": "",
          "type": "address"
        },
        {
          "internalType": "bytes4",
          "name": "",
          "type": "bytes4"
        }
      ],
      "name": "ethPermissions",
      "outputs": [
        {
          "internalType": "uint256",
          "name": "valueTransferred",
          "type": "uint256"
        },
        {
          "internalType": "uint256",
          "name": "valueTransferedOnBlock",
          "type": "uint256"
        },
        {
          "internalType": "uint256",
          "name": "valueAllowed",
          "type": "uint256"
        },
        {
          "internalType": "uint256",
          "name": "fromTime",
          "type": "uint256"
        }
      ],
      "stateMutability": "view",
      "type": "function"
    },
    {
      "inputs": [
        {
          "internalType": "address",
          "name": "from",
          "type": "address"
        },
        {
          "internalType": "uint256",
          "name": "index",
          "type": "uint256"
        }
      ],
      "name": "executeRemoveERC20Limit",
      "outputs": [],
      "stateMutability": "nonpayable",
      "type": "function"
    },
    {
      "inputs": [
        {
          "internalType": "address",
          "name": "from",
          "type": "address"
        },
        {
          "internalType": "address",
          "name": "token",
          "type": "address"
        }
      ],
      "name": "getERC20Limit",
      "outputs": [
        {
          "internalType": "uint256",
          "name": "",
          "type": "uint256"
        }
      ],
      "stateMutability": "view",
      "type": "function"
    },
    {
      "inputs": [
        {
          "internalType": "address",
          "name": "from",
          "type": "address"
        },
        {
          "internalType": "address",
          "name": "to",
          "type": "address"
        },
        {
          "internalType": "bytes4",
          "name": "functionSignature",
          "type": "bytes4"
        }
      ],
      "name": "getETHPermission",
      "outputs": [
        {
          "internalType": "uint256",
          "name": "valueAllowed",
          "type": "uint256"
        },
        {
          "internalType": "uint256",
          "name": "fromTime",
          "type": "uint256"
        }
      ],
      "stateMutability": "view",
      "type": "function"
    },
    {
      "inputs": [
        {
          "internalType": "address",
          "name": "from",
          "type": "address"
        }
      ],
      "name": "getETHPermissionDelay",
      "outputs": [
        {
          "internalType": "uint256",
          "name": "",
          "type": "uint256"
        }
      ],
      "stateMutability": "view",
      "type": "function"
    },
    {
      "inputs": [],
      "name": "initialize",
      "outputs": [],
      "stateMutability": "nonpayable",
      "type": "function"
    },
    {
      "inputs": [],
      "name": "owner",
      "outputs": [
        {
          "internalType": "address",
          "name": "",
          "type": "address"
        }
      ],
      "stateMutability": "view",
      "type": "function"
    },
    {
      "inputs": [
        {
          "internalType": "address",
          "name": "",
          "type": "address"
        }
      ],
      "name": "permissionDelay",
      "outputs": [
        {
          "internalType": "uint256",
          "name": "",
          "type": "uint256"
        }
      ],
      "stateMutability": "view",
      "type": "function"
    },
    {
      "inputs": [
        {
          "internalType": "address",
          "name": "from",
          "type": "address"
        },
        {
          "internalType": "uint256",
          "name": "index",
          "type": "uint256"
        }
      ],
      "name": "removeERC20Limit",
      "outputs": [],
      "stateMutability": "nonpayable",
      "type": "function"
    },
    {
      "inputs": [],
      "name": "renounceOwnership",
      "outputs": [],
      "stateMutability": "nonpayable",
      "type": "function"
    },
    {
      "inputs": [],
      "name": "setERC20Balances",
      "outputs": [],
      "stateMutability": "nonpayable",
      "type": "function"
    },
    {
      "inputs": [
        {
          "internalType": "address",
          "name": "from",
          "type": "address"
        },
        {
          "internalType": "address",
          "name": "to",
          "type": "address"
        },
        {
          "internalType": "bytes4",
          "name": "functionSignature",
          "type": "bytes4"
        },
        {
          "internalType": "uint256",
          "name": "valueAllowed",
          "type": "uint256"
        },
        {
          "internalType": "bool",
          "name": "allowed",
          "type": "bool"
        }
      ],
      "name": "setETHPermission",
      "outputs": [],
      "stateMutability": "nonpayable",
      "type": "function"
    },
    {
      "inputs": [
        {
          "internalType": "address",
          "name": "from",
          "type": "address"
        },
        {
          "internalType": "uint256",
          "name": "_timeDelay",
          "type": "uint256"
        }
      ],
      "name": "setETHPermissionDelay",
      "outputs": [],
      "stateMutability": "nonpayable",
      "type": "function"
    },
    {
      "inputs": [
        {
          "internalType": "address",
          "name": "from",
          "type": "address"
        },
        {
          "internalType": "address",
          "name": "to",
          "type": "address"
        },
        {
          "internalType": "bytes4",
          "name": "functionSignature",
          "type": "bytes4"
        },
        {
          "internalType": "uint256",
          "name": "valueTransferred",
          "type": "uint256"
        }
      ],
      "name": "setETHPermissionUsed",
      "outputs": [],
      "stateMutability": "nonpayable",
      "type": "function"
    },
    {
      "inputs": [
        {
          "internalType": "address",
          "name": "newOwner",
          "type": "address"
        }
      ],
      "name": "transferOwnership",
      "outputs": [],
      "stateMutability": "nonpayable",
      "type": "function"
    }
  ],
  "transactionHash": "0x92f88d8888c9014d27802624f358c6473719d4fa15c6da76bd2ef59ab446f29f",
  "numDeployments": 7,
  "bytecode": "0x608060405234801561001057600080fd5b506119fc806100206000396000f3fe608060405234801561001057600080fd5b506004361061010b5760003560e01c80638d2b9eff116100a2578063e926b6b511610071578063e926b6b514610250578063ea41790414610279578063eed47033146102a1578063f2fde38b146102b4578063fb0fde85146102c757600080fd5b80638d2b9eff1461019c5780638da5cb5b146101bc5780639692010c146101d7578063bcbe6d7b146101ea57600080fd5b806348ec8bb6116100de57806348ec8bb6146101665780636cfe048914610179578063715018a61461018c5780638129fc1c1461019457600080fd5b8063108764761461011057806331952632146101255780633e7a47b214610138578063443f863f14610140575b600080fd5b61012361011e36600461164a565b6102ea565b005b610123610133366004611674565b610349565b610123610802565b61015361014e3660046116b6565b610929565b6040519081526020015b60405180910390f35b61012361017436600461164a565b6109fd565b610123610187366004611701565b610ad5565b610123610cee565b610123610d52565b6101536101aa366004611768565b60656020526000908152604090205481565b6033546040516001600160a01b03909116815260200161015d565b6101236101e536600461164a565b610dc5565b6102306101f8366004611783565b606660209081526000938452604080852082529284528284209052825290208054600182015460028301546003909301549192909184565b60408051948552602085019390935291830152606082015260800161015d565b61015361025e366004611768565b6001600160a01b031660009081526065602052604090205490565b61028c610287366004611783565b610f09565b6040805192835260208301919091520161015d565b6101236102af3660046117c6565b610f92565b6101236102c2366004611768565b611112565b6102da6102d5366004611768565b6111da565b604051901515815260200161015d565b6033546001600160a01b0316331461032d576001600160a01b038216331461032d5760405162461bcd60e51b815260040161032490611811565b60405180910390fd5b6001600160a01b03909116600090815260656020526040902055565b6033546001600160a01b03163314610383576001600160a01b03841633146103835760405162461bcd60e51b815260040161032490611811565b6001600160a01b0384166000908152606760205260409020548111156103bb5760405162461bcd60e51b815260040161032490611866565b6001600160a01b0383166104295760405162461bcd60e51b815260206004820152602f60248201527f5065726d697373696f6e52656769737472793a20546f6b656e2061646472657360448201526e0732063616e6e6f742062652030783608c1b6064820152608401610324565b6040516370a0823160e01b81523360048201526000906001600160a01b038516906370a0823190602401602060405180830381865afa158015610470573d6000803e3d6000fd5b505050506040513d601f19601f8201168201806040525081019061049491906118ad565b6001600160a01b038616600090815260676020526040902054909150820361061f5760005b6001600160a01b03861660009081526067602052604090205481101561059a576001600160a01b03868116600090815260676020526040902080549187169183908110610508576105086118c6565b60009182526020909120600490910201546001600160a01b0316036105885760405162461bcd60e51b815260206004820152603060248201527f5065726d697373696f6e52656769737472793a204c696d6974206f6e20746f6b60448201526f195b88185b1c9958591e48185919195960821b6064820152608401610324565b80610592816118f2565b9150506104b9565b506001600160a01b0385811660009081526067602090815260408083208151608081018352898616815280840187815292810189815260608201868152835460018082018655948852959096209151600490950290910180546001600160a01b03191694909616939093178555905190840155516002830155516003909101556107fb565b6001600160a01b0385166000908152606760205260408120805484908110610649576106496118c6565b60009182526020909120600490910201546001600160a01b0316146106cf5760405162461bcd60e51b815260206004820152603660248201527f5065726d697373696f6e52656769737472793a2043616e74206f7665727269646044820152751948195e1a5cdd195b9d08115490cc8c081b1a5b5a5d60521b6064820152608401610324565b6001600160a01b03851660009081526067602052604090208054859190849081106106fc576106fc6118c6565b6000918252602080832060049290920290910180546001600160a01b0319166001600160a01b03948516179055918716815260679091526040902080548291908490811061074c5761074c6118c6565b9060005260206000209060040201600101819055508260676000876001600160a01b03166001600160a01b031681526020019081526020016000208381548110610798576107986118c6565b906000526020600020906004020160020181905550600060676000876001600160a01b03166001600160a01b0316815260200190815260200160002083815481106107e5576107e56118c6565b9060005260206000209060040201600301819055505b5050505050565b33600090815260686020526040902054431115610927573360009081526068602052604081204390555b3360009081526067602052604090205481101561092557336000908152606760205260409020805482908110610864576108646118c6565b60009182526020909120600491820201546040516370a0823160e01b815233928101929092526001600160a01b0316906370a0823190602401602060405180830381865afa1580156108ba573d6000803e3d6000fd5b505050506040513d601f19601f820116820180604052508101906108de91906118ad565b3360009081526067602052604090208054839081106108ff576108ff6118c6565b60009182526020909120600160049092020101558061091d816118f2565b91505061082c565b505b565b6000805b6001600160a01b0384166000908152606760205260409020548110156109f1576001600160a01b0384811660009081526067602052604090208054918516918390811061097c5761097c6118c6565b60009182526020909120600490910201546001600160a01b0316036109df576001600160a01b03841660009081526067602052604090208054829081106109c5576109c56118c6565b9060005260206000209060040201600201549150506109f7565b806109e9816118f2565b91505061092d565b50600090505b92915050565b6033546001600160a01b03163314610a37576001600160a01b0382163314610a375760405162461bcd60e51b815260040161032490611811565b6001600160a01b0382166000908152606760205260409020548110610a6e5760405162461bcd60e51b815260040161032490611866565b6001600160a01b038216600090815260656020526040902054610a9290429061143a565b6001600160a01b0383166000908152606760205260409020805483908110610abc57610abc6118c6565b9060005260206000209060040201600301819055505050565b6033546001600160a01b03163314610b0f576001600160a01b0385163314610b0f5760405162461bcd60e51b815260040161032490611811565b306001600160a01b03851603610b975760405162461bcd60e51b815260206004820152604160248201527f5065726d697373696f6e52656769737472793a2043616e74207365742065746860448201527f5065726d697373696f6e7320746f205065726d697373696f6e526567697374726064820152607960f81b608482015260a401610324565b8015610c0b576001600160a01b038516600090815260656020526040902054610bc190429061143a565b6001600160a01b03868116600090815260666020908152604080832093891683529281528282206001600160e01b0319881683529052206003810191909155600201829055610c50565b6001600160a01b03858116600090815260666020908152604080832093881683529281528282206001600160e01b031987168352905290812060038101829055600201555b6001600160a01b0385811660008181526066602090815260408083209489168084529482528083206001600160e01b03198916808552908352928190206003810154600290910154825195865292850195909552830191909152606082019290925260808101919091527fa8d1883748320f844ad63c0685f3f5372c0932122cbbdd9fd172781458d768cc9060a00160405180910390a15050505050565b6033546001600160a01b03163314610d485760405162461bcd60e51b815260206004820181905260248201527f4f776e61626c653a2063616c6c6572206973206e6f7420746865206f776e65726044820152606401610324565b610927600061144d565b600054610100900460ff1680610d6b575060005460ff16155b610d875760405162461bcd60e51b81526004016103249061190b565b600054610100900460ff16158015610da9576000805461ffff19166101011790555b610db161149f565b8015610925576000805461ff001916905550565b6001600160a01b0382166000908152606760205260409020805482908110610def57610def6118c6565b9060005260206000209060040201600301544210610e6b5760405162461bcd60e51b815260206004820152603360248201527f5065726d697373696f6e52656769737472793a2043616e742065786563757465604482015272081c195c9b5a5cdcda5bdb881c995b5bdd985b606a1b6064820152608401610324565b6040805160808101825260008082526020808301829052828401829052606083018290526001600160a01b03861682526067905291909120805483908110610eb557610eb56118c6565b600091825260209182902083516004929092020180546001600160a01b0319166001600160a01b03909216919091178155908201516001820155604082015160028201556060909101516003909101555050565b600080836001600160a01b0316856001600160a01b03161480610f3457506001600160a01b03841630145b15610f455750600090506001610f8a565b50506001600160a01b03838116600090815260666020908152604080832093861683529281528282206001600160e01b03198516835290522060028101546003909101545b935093915050565b6001600160a01b0384163314610fba5760405162461bcd60e51b815260040161032490611811565b8015610ff2576001600160a01b038416600090815260666020908152604080832083805282528083209091529020610ff29082611506565b6000610fff858585610f09565b91505080156110ae574281106110685760405162461bcd60e51b815260206004820152602860248201527f5065726d697373696f6e52656769737472793a2043616c6c206e6f7420616c6c6044820152671bddd959081e595d60c21b6064820152608401610324565b6001600160a01b03808616600090815260666020908152604080832093881683529281528282206001600160e01b0319871683529052206110a99083611506565b6107fb565b6001600160e01b03198316156107fb5760405162461bcd60e51b8152602060048201526024808201527f5065726d697373696f6e52656769737472793a2043616c6c206e6f7420616c6c6044820152631bddd95960e21b6064820152608401610324565b6033546001600160a01b0316331461116c5760405162461bcd60e51b815260206004820181905260248201527f4f776e61626c653a2063616c6c6572206973206e6f7420746865206f776e65726044820152606401610324565b6001600160a01b0381166111d15760405162461bcd60e51b815260206004820152602660248201527f4f776e61626c653a206e6577206f776e657220697320746865207a65726f206160448201526564647265737360d01b6064820152608401610324565b6109258161144d565b6001600160a01b03811660009081526068602052604081205443146112595760405162461bcd60e51b815260206004820152602f60248201527f5065726d697373696f6e52656769737472793a20455243323020696e6974696160448201526e1b15985b1d595cc81b9bdd081cd95d608a1b6064820152608401610324565b60005b6001600160a01b038316600090815260676020526040902054811015611431576001600160a01b03831660009081526067602052604081208054839081106112a6576112a66118c6565b60009182526020909120600491820201546040516370a0823160e01b81526001600160a01b03878116938201939093529116906370a0823190602401602060405180830381865afa1580156112ff573d6000803e3d6000fd5b505050506040513d601f19601f8201168201806040525081019061132391906118ad565b6001600160a01b038516600090815260676020526040902080549192509083908110611351576113516118c6565b90600052602060002090600402016001015481101561141e576001600160a01b0384166000908152606760205260409020805483908110611394576113946118c6565b9060005260206000209060040201600201546114008260676000886001600160a01b03166001600160a01b0316815260200190815260200160002085815481106113e0576113e06118c6565b90600052602060002090600402016001015461155890919063ffffffff16565b111561141e5760405162461bcd60e51b815260040161032490611959565b5080611429816118f2565b91505061125c565b50600192915050565b600061144682846119a0565b9392505050565b603380546001600160a01b038381166001600160a01b0319831681179093556040519116919082907f8be0079c531659141344cd1fd0a4f28419497f9722a3daafe3b4186f6b6457e090600090a35050565b600054610100900460ff16806114b8575060005460ff16155b6114d45760405162461bcd60e51b81526004016103249061190b565b600054610100900460ff161580156114f6576000805461ffff19166101011790555b6114fe611564565b610db16115ce565b43826001015410156115205743600183015580825561152f565b815461152c908261143a565b82555b6002820154825411156115545760405162461bcd60e51b815260040161032490611959565b5050565b600061144682846119b3565b600054610100900460ff168061157d575060005460ff16155b6115995760405162461bcd60e51b81526004016103249061190b565b600054610100900460ff16158015610db1576000805461ffff19166101011790558015610925576000805461ff001916905550565b600054610100900460ff16806115e7575060005460ff16155b6116035760405162461bcd60e51b81526004016103249061190b565b600054610100900460ff16158015611625576000805461ffff19166101011790555b610db13361144d565b80356001600160a01b038116811461164557600080fd5b919050565b6000806040838503121561165d57600080fd5b6116668361162e565b946020939093013593505050565b6000806000806080858703121561168a57600080fd5b6116938561162e565b93506116a16020860161162e565b93969395505050506040820135916060013590565b600080604083850312156116c957600080fd5b6116d28361162e565b91506116e06020840161162e565b90509250929050565b80356001600160e01b03198116811461164557600080fd5b600080600080600060a0868803121561171957600080fd5b6117228661162e565b94506117306020870161162e565b935061173e604087016116e9565b9250606086013591506080860135801515811461175a57600080fd5b809150509295509295909350565b60006020828403121561177a57600080fd5b6114468261162e565b60008060006060848603121561179857600080fd5b6117a18461162e565b92506117af6020850161162e565b91506117bd604085016116e9565b90509250925092565b600080600080608085870312156117dc57600080fd5b6117e58561162e565b93506117f36020860161162e565b9250611801604086016116e9565b9396929550929360600135925050565b60208082526035908201527f5065726d697373696f6e52656769737472793a204f6e6c79206f776e65722063604082015274616e20737065636966792066726f6d2076616c756560581b606082015260800190565b60208082526027908201527f5065726d697373696f6e52656769737472793a20496e646578206f7574206f6660408201526620626f756e647360c81b606082015260800190565b6000602082840312156118bf57600080fd5b5051919050565b634e487b7160e01b600052603260045260246000fd5b634e487b7160e01b600052601160045260246000fd5b600060018201611904576119046118dc565b5060010190565b6020808252602e908201527f496e697469616c697a61626c653a20636f6e747261637420697320616c72656160408201526d191e481a5b9a5d1a585b1a5e995960921b606082015260800190565b60208082526027908201527f5065726d697373696f6e52656769737472793a2056616c7565206c696d6974206040820152661c995858da195960ca1b606082015260800190565b808201808211156109f7576109f76118dc565b818103818111156109f7576109f76118dc56fea2646970667358221220521d45af87b1c51f5c10231a7575b42a80532048f15df1dae7735c71513aee0464736f6c63430008110033"
}