{
  "address": "0xe2a3C4006c5e5C331ea9A98E95AD1f053b4035AA",
  "abi": [
    {
      "inputs": [],
      "name": "ERC20SnapshotRep__NoTransfer",
      "type": "error"
    },
    {
      "anonymous": false,
      "inputs": [
        {
          "indexed": true,
          "internalType": "address",
          "name": "owner",
          "type": "address"
        },
        {
          "indexed": true,
          "internalType": "address",
          "name": "spender",
          "type": "address"
        },
        {
          "indexed": false,
          "internalType": "uint256",
          "name": "value",
          "type": "uint256"
        }
      ],
      "name": "Approval",
      "type": "event"
    },
    {
      "anonymous": false,
      "inputs": [
        {
          "indexed": true,
          "internalType": "address",
          "name": "from",
          "type": "address"
        },
        {
          "indexed": false,
          "internalType": "uint256",
          "name": "amount",
          "type": "uint256"
        }
      ],
      "name": "Burn",
      "type": "event"
    },
    {
      "anonymous": false,
      "inputs": [
        {
          "indexed": true,
          "internalType": "address",
          "name": "to",
          "type": "address"
        },
        {
          "indexed": false,
          "internalType": "uint256",
          "name": "amount",
          "type": "uint256"
        }
      ],
      "name": "Mint",
      "type": "event"
    },
    {
      "anonymous": false,
      "inputs": [
        {
          "indexed": true,
          "internalType": "address",
          "name": "previousOwner",
          "type": "address"
        },
        {
          "indexed": true,
          "internalType": "address",
          "name": "newOwner",
          "type": "address"
        }
      ],
      "name": "OwnershipTransferred",
      "type": "event"
    },
    {
      "anonymous": false,
      "inputs": [
        {
          "indexed": false,
          "internalType": "uint256",
          "name": "id",
          "type": "uint256"
        }
      ],
      "name": "Snapshot",
      "type": "event"
    },
    {
      "anonymous": false,
      "inputs": [
        {
          "indexed": true,
          "internalType": "address",
          "name": "from",
          "type": "address"
        },
        {
          "indexed": true,
          "internalType": "address",
          "name": "to",
          "type": "address"
        },
        {
          "indexed": false,
          "internalType": "uint256",
          "name": "value",
          "type": "uint256"
        }
      ],
      "name": "Transfer",
      "type": "event"
    },
    {
      "inputs": [
        {
          "internalType": "address",
          "name": "owner",
          "type": "address"
        },
        {
          "internalType": "address",
          "name": "spender",
          "type": "address"
        }
      ],
      "name": "allowance",
      "outputs": [
        {
          "internalType": "uint256",
          "name": "",
          "type": "uint256"
        }
      ],
      "stateMutability": "view",
      "type": "function"
    },
    {
      "inputs": [
        {
          "internalType": "address",
          "name": "spender",
          "type": "address"
        },
        {
          "internalType": "uint256",
          "name": "amount",
          "type": "uint256"
        }
      ],
      "name": "approve",
      "outputs": [
        {
          "internalType": "bool",
          "name": "",
          "type": "bool"
        }
      ],
      "stateMutability": "nonpayable",
      "type": "function"
    },
    {
      "inputs": [
        {
          "internalType": "address",
          "name": "account",
          "type": "address"
        }
      ],
      "name": "balanceOf",
      "outputs": [
        {
          "internalType": "uint256",
          "name": "",
          "type": "uint256"
        }
      ],
      "stateMutability": "view",
      "type": "function"
    },
    {
      "inputs": [
        {
          "internalType": "address",
          "name": "account",
          "type": "address"
        },
        {
          "internalType": "uint256",
          "name": "snapshotId",
          "type": "uint256"
        }
      ],
      "name": "balanceOfAt",
      "outputs": [
        {
          "internalType": "uint256",
          "name": "",
          "type": "uint256"
        }
      ],
      "stateMutability": "view",
      "type": "function"
    },
    {
      "inputs": [
        {
          "internalType": "address",
          "name": "account",
          "type": "address"
        },
        {
          "internalType": "uint256",
          "name": "amount",
          "type": "uint256"
        }
      ],
      "name": "burn",
      "outputs": [
        {
          "internalType": "bool",
          "name": "success",
          "type": "bool"
        }
      ],
      "stateMutability": "nonpayable",
      "type": "function"
    },
    {
      "inputs": [
        {
          "internalType": "address[]",
          "name": "accounts",
          "type": "address[]"
        },
        {
          "internalType": "uint256[]",
          "name": "amount",
          "type": "uint256[]"
        }
      ],
      "name": "burnMultiple",
      "outputs": [
        {
          "internalType": "bool",
          "name": "success",
          "type": "bool"
        }
      ],
      "stateMutability": "nonpayable",
      "type": "function"
    },
    {
      "inputs": [],
      "name": "decimals",
      "outputs": [
        {
          "internalType": "uint8",
          "name": "",
          "type": "uint8"
        }
      ],
      "stateMutability": "view",
      "type": "function"
    },
    {
      "inputs": [
        {
          "internalType": "address",
          "name": "spender",
          "type": "address"
        },
        {
          "internalType": "uint256",
          "name": "subtractedValue",
          "type": "uint256"
        }
      ],
      "name": "decreaseAllowance",
      "outputs": [
        {
          "internalType": "bool",
          "name": "",
          "type": "bool"
        }
      ],
      "stateMutability": "nonpayable",
      "type": "function"
    },
    {
      "inputs": [],
      "name": "getCurrentSnapshotId",
      "outputs": [
        {
          "internalType": "uint256",
          "name": "",
          "type": "uint256"
        }
      ],
      "stateMutability": "view",
      "type": "function"
    },
    {
      "inputs": [],
      "name": "getTotalHolders",
      "outputs": [
        {
          "internalType": "uint256",
          "name": "",
          "type": "uint256"
        }
      ],
      "stateMutability": "view",
      "type": "function"
    },
    {
      "inputs": [
        {
          "internalType": "address",
          "name": "spender",
          "type": "address"
        },
        {
          "internalType": "uint256",
          "name": "addedValue",
          "type": "uint256"
        }
      ],
      "name": "increaseAllowance",
      "outputs": [
        {
          "internalType": "bool",
          "name": "",
          "type": "bool"
        }
      ],
      "stateMutability": "nonpayable",
      "type": "function"
    },
    {
      "inputs": [
        {
          "internalType": "string",
          "name": "name",
          "type": "string"
        },
        {
          "internalType": "string",
          "name": "symbol",
          "type": "string"
        }
      ],
      "name": "initialize",
      "outputs": [],
      "stateMutability": "nonpayable",
      "type": "function"
    },
    {
      "inputs": [
        {
          "internalType": "address",
          "name": "account",
          "type": "address"
        },
        {
          "internalType": "uint256",
          "name": "amount",
          "type": "uint256"
        }
      ],
      "name": "mint",
      "outputs": [
        {
          "internalType": "bool",
          "name": "success",
          "type": "bool"
        }
      ],
      "stateMutability": "nonpayable",
      "type": "function"
    },
    {
      "inputs": [
        {
          "internalType": "address[]",
          "name": "accounts",
          "type": "address[]"
        },
        {
          "internalType": "uint256[]",
          "name": "amount",
          "type": "uint256[]"
        }
      ],
      "name": "mintMultiple",
      "outputs": [
        {
          "internalType": "bool",
          "name": "success",
          "type": "bool"
        }
      ],
      "stateMutability": "nonpayable",
      "type": "function"
    },
    {
      "inputs": [],
      "name": "name",
      "outputs": [
        {
          "internalType": "string",
          "name": "",
          "type": "string"
        }
      ],
      "stateMutability": "view",
      "type": "function"
    },
    {
      "inputs": [],
      "name": "owner",
      "outputs": [
        {
          "internalType": "address",
          "name": "",
          "type": "address"
        }
      ],
      "stateMutability": "view",
      "type": "function"
    },
    {
      "inputs": [],
      "name": "renounceOwnership",
      "outputs": [],
      "stateMutability": "nonpayable",
      "type": "function"
    },
    {
      "inputs": [],
      "name": "symbol",
      "outputs": [
        {
          "internalType": "string",
          "name": "",
          "type": "string"
        }
      ],
      "stateMutability": "view",
      "type": "function"
    },
    {
      "inputs": [],
      "name": "totalHolders",
      "outputs": [
        {
          "internalType": "uint256",
          "name": "",
          "type": "uint256"
        }
      ],
      "stateMutability": "view",
      "type": "function"
    },
    {
      "inputs": [],
      "name": "totalSupply",
      "outputs": [
        {
          "internalType": "uint256",
          "name": "",
          "type": "uint256"
        }
      ],
      "stateMutability": "view",
      "type": "function"
    },
    {
      "inputs": [
        {
          "internalType": "uint256",
          "name": "snapshotId",
          "type": "uint256"
        }
      ],
      "name": "totalSupplyAt",
      "outputs": [
        {
          "internalType": "uint256",
          "name": "",
          "type": "uint256"
        }
      ],
      "stateMutability": "view",
      "type": "function"
    },
    {
      "inputs": [
        {
          "internalType": "address",
          "name": "recipient",
          "type": "address"
        },
        {
          "internalType": "uint256",
          "name": "amount",
          "type": "uint256"
        }
      ],
      "name": "transfer",
      "outputs": [
        {
          "internalType": "bool",
          "name": "",
          "type": "bool"
        }
      ],
      "stateMutability": "nonpayable",
      "type": "function"
    },
    {
      "inputs": [
        {
          "internalType": "address",
          "name": "sender",
          "type": "address"
        },
        {
          "internalType": "address",
          "name": "recipient",
          "type": "address"
        },
        {
          "internalType": "uint256",
          "name": "amount",
          "type": "uint256"
        }
      ],
      "name": "transferFrom",
      "outputs": [
        {
          "internalType": "bool",
          "name": "",
          "type": "bool"
        }
      ],
      "stateMutability": "nonpayable",
      "type": "function"
    },
    {
      "inputs": [
        {
          "internalType": "address",
          "name": "newOwner",
          "type": "address"
        }
      ],
      "name": "transferOwnership",
      "outputs": [],
      "stateMutability": "nonpayable",
      "type": "function"
    }
  ],
  "transactionHash": "0x4c88ad368003452502bef52f7764a82b7702022a3bd376ea6da9f6a748583174",
  "numDeployments": 1,
  "bytecode": "0x608060405234801561001057600080fd5b50611b02806100206000396000f3fe608060405234801561001057600080fd5b50600436106101585760003560e01c80635439ad86116100c35780639dc29fac1161007c5780639dc29fac146102b3578063a457c2d7146102c6578063a9059cbb146102d9578063d216294f146102ec578063dd62ed3e146102ff578063f2fde38b1461033857600080fd5b80635439ad861461024457806370a082311461024c578063715018a6146102755780638da5cb5b1461027d57806395d89b4114610298578063981b24d0146102a057600080fd5b8063313ce56711610115578063313ce567146101de57806339509351146101ed57806340c10f19146102005780634cd88b76146102135780634ee2cd7e1461022857806353d74fdf1461023b57600080fd5b806306fdde031461015d57806307ea54771461017b578063095ea7b31461019e57806318160ddd146101b157806323b872dd146101c35780632b3c0db3146101d6575b600080fd5b61016561034b565b60405161017291906114cb565b60405180910390f35b61018e610189366004611606565b6103dd565b6040519015158152602001610172565b61018e6101ac3660046116c6565b610519565b6067545b604051908152602001610172565b61018e6101d13660046116f0565b61052f565b60c9546101b5565b60405160128152602001610172565b61018e6101fb3660046116c6565b6105d9565b61018e61020e3660046116c6565b610615565b61022661022136600461179c565b6106aa565b005b6101b56102363660046116c6565b61072a565b6101b560c95481565b6101b5610783565b6101b561025a3660046117f6565b6001600160a01b031660009081526065602052604090205490565b610226610792565b6033546040516001600160a01b039091168152602001610172565b6101656107c8565b6101b56102ae366004611811565b6107d7565b61018e6102c13660046116c6565b610802565b61018e6102d43660046116c6565b610886565b61018e6102e73660046116c6565b61091f565b61018e6102fa366004611606565b61092c565b6101b561030d36600461182a565b6001600160a01b03918216600090815260666020908152604080832093909416825291909152205490565b6102266103463660046117f6565b610a53565b60606068805461035a9061185d565b80601f01602080910402602001604051908101604052809291908181526020018280546103869061185d565b80156103d35780601f106103a8576101008083540402835291602001916103d3565b820191906000526020600020905b8154815290600101906020018083116103b657829003601f168201915b5050505050905090565b6033546000906001600160a01b031633146104135760405162461bcd60e51b815260040161040a90611897565b60405180910390fd5b60005b835181101561050d57610441848281518110610434576104346118cc565b6020026020010151610aee565b61047d848281518110610456576104566118cc565b6020026020010151848381518110610470576104706118cc565b6020026020010151610b26565b610485610c11565b50838181518110610498576104986118cc565b60200260200101516001600160a01b03167f0f6798a560793a54c3bcfe86a93cde1e73087d944c0ea20544137d41213968858483815181106104dc576104dc6118cc565b60200260200101516040516104f391815260200190565b60405180910390a280610505816118f8565b915050610416565b50600190505b92915050565b6000610526338484610c6b565b50600192915050565b600061053c848484610d8f565b6001600160a01b0384166000908152606660209081526040808320338452909152902054828110156105c15760405162461bcd60e51b815260206004820152602860248201527f45524332303a207472616e7366657220616d6f756e74206578636565647320616044820152676c6c6f77616e636560c01b606482015260840161040a565b6105ce8533858403610c6b565b506001949350505050565b3360008181526066602090815260408083206001600160a01b03871684529091528120549091610526918590610610908690611911565b610c6b565b6033546000906001600160a01b031633146106425760405162461bcd60e51b815260040161040a90611897565b61064b83610aee565b6106558383610b26565b61065d610c11565b50826001600160a01b03167f0f6798a560793a54c3bcfe86a93cde1e73087d944c0ea20544137d41213968858360405161069991815260200190565b60405180910390a250600192915050565b600054610100900460ff16806106c3575060005460ff16155b6106df5760405162461bcd60e51b815260040161040a90611924565b600054610100900460ff16158015610701576000805461ffff19166101011790555b61070b8383610da8565b610713610e11565b8015610725576000805461ff00191690555b505050565b6001600160a01b038216600090815260976020526040812081908190610751908590610e8c565b9150915081610778576001600160a01b03851660009081526065602052604090205461077a565b805b95945050505050565b600061078d610f82565b905090565b6033546001600160a01b031633146107bc5760405162461bcd60e51b815260040161040a90611897565b6107c66000610f8d565b565b60606069805461035a9061185d565b60008060006107e7846098610e8c565b91509150816107f8576067546107fa565b805b949350505050565b6033546000906001600160a01b0316331461082f5760405162461bcd60e51b815260040161040a90611897565b6108398383610fdf565b61084283611139565b61084a610c11565b50826001600160a01b03167fcc16f5dbb4873280815c1ee09dbd06736cffcc184412cf7a71a0fdb75d397ca58360405161069991815260200190565b3360009081526066602090815260408083206001600160a01b0386168452909152812054828110156109085760405162461bcd60e51b815260206004820152602560248201527f45524332303a2064656372656173656420616c6c6f77616e63652062656c6f77604482015264207a65726f60d81b606482015260840161040a565b6109153385858403610c6b565b5060019392505050565b6000610526338484610d8f565b6033546000906001600160a01b031633146109595760405162461bcd60e51b815260040161040a90611897565b60005b835181101561050d576109a184828151811061097a5761097a6118cc565b6020026020010151848381518110610994576109946118cc565b6020026020010151610fdf565b6109c38482815181106109b6576109b66118cc565b6020026020010151611139565b6109cb610c11565b508381815181106109de576109de6118cc565b60200260200101516001600160a01b03167fcc16f5dbb4873280815c1ee09dbd06736cffcc184412cf7a71a0fdb75d397ca5848381518110610a2257610a226118cc565b6020026020010151604051610a3991815260200190565b60405180910390a280610a4b816118f8565b91505061095c565b6033546001600160a01b03163314610a7d5760405162461bcd60e51b815260040161040a90611897565b6001600160a01b038116610ae25760405162461bcd60e51b815260206004820152602660248201527f4f776e61626c653a206e6577206f776e657220697320746865207a65726f206160448201526564647265737360d01b606482015260840161040a565b610aeb81610f8d565b50565b6001600160a01b038116600090815260656020526040902054600003610aeb5760c98054906000610b1e836118f8565b919050555050565b6001600160a01b038216610b7c5760405162461bcd60e51b815260206004820152601f60248201527f45524332303a206d696e7420746f20746865207a65726f206164647265737300604482015260640161040a565b610b8860008383611176565b8060676000828254610b9a9190611911565b90915550506001600160a01b03821660009081526065602052604081208054839290610bc7908490611911565b90915550506040518181526001600160a01b038316906000907fddf252ad1be2c89b69c2b068fc378daa952ba7f163c4a11628f55a4df523b3ef9060200160405180910390a35050565b6000610c21609a80546001019055565b6000610c2b610f82565b90507f8030e83b04d87bef53480e26263266d6ca66863aa8506aca6f2559d18aa1cb6781604051610c5e91815260200190565b60405180910390a1919050565b6001600160a01b038316610ccd5760405162461bcd60e51b8152602060048201526024808201527f45524332303a20617070726f76652066726f6d20746865207a65726f206164646044820152637265737360e01b606482015260840161040a565b6001600160a01b038216610d2e5760405162461bcd60e51b815260206004820152602260248201527f45524332303a20617070726f766520746f20746865207a65726f206164647265604482015261737360f01b606482015260840161040a565b6001600160a01b0383811660008181526066602090815260408083209487168084529482529182902085905590518481527f8c5be1e5ebec7d5bd14f71427d1e84f3dd0314c0f7b2291e5b200ac8c7c3b925910160405180910390a3505050565b60405163fa74de7d60e01b815260040160405180910390fd5b600054610100900460ff1680610dc1575060005460ff16155b610ddd5760405162461bcd60e51b815260040161040a90611924565b600054610100900460ff16158015610dff576000805461ffff19166101011790555b610e076111be565b6107138383611228565b600054610100900460ff1680610e2a575060005460ff16155b610e465760405162461bcd60e51b815260040161040a90611924565b600054610100900460ff16158015610e68576000805461ffff19166101011790555b610e706111be565b610e786112af565b8015610aeb576000805461ff001916905550565b60008060008411610ed85760405162461bcd60e51b815260206004820152601660248201527504552433230536e617073686f743a20696420697320360541b604482015260640161040a565b610ee0610f82565b841115610f2f5760405162461bcd60e51b815260206004820152601d60248201527f4552433230536e617073686f743a206e6f6e6578697374656e74206964000000604482015260640161040a565b6000610f3b848661130f565b84549091508103610f53576000809250925050610f7b565b6001846001018281548110610f6a57610f6a6118cc565b906000526020600020015492509250505b9250929050565b600061078d609a5490565b603380546001600160a01b038381166001600160a01b0319831681179093556040519116919082907f8be0079c531659141344cd1fd0a4f28419497f9722a3daafe3b4186f6b6457e090600090a35050565b6001600160a01b03821661103f5760405162461bcd60e51b815260206004820152602160248201527f45524332303a206275726e2066726f6d20746865207a65726f206164647265736044820152607360f81b606482015260840161040a565b61104b82600083611176565b6001600160a01b038216600090815260656020526040902054818110156110bf5760405162461bcd60e51b815260206004820152602260248201527f45524332303a206275726e20616d6f756e7420657863656564732062616c616e604482015261636560f01b606482015260840161040a565b6001600160a01b03831660009081526065602052604081208383039055606780548492906110ee908490611972565b90915550506040518281526000906001600160a01b038516907fddf252ad1be2c89b69c2b068fc378daa952ba7f163c4a11628f55a4df523b3ef9060200160405180910390a3505050565b6001600160a01b0381166000908152606560205260409020541580156111615750600060c954115b15610aeb5760c98054906000610b1e83611985565b6001600160a01b0383166111955761118d826113d4565b610725611407565b6001600160a01b0382166111ac5761118d836113d4565b6111b5836113d4565b610725826113d4565b600054610100900460ff16806111d7575060005460ff16155b6111f35760405162461bcd60e51b815260040161040a90611924565b600054610100900460ff16158015610e78576000805461ffff19166101011790558015610aeb576000805461ff001916905550565b600054610100900460ff1680611241575060005460ff16155b61125d5760405162461bcd60e51b815260040161040a90611924565b600054610100900460ff1615801561127f576000805461ffff19166101011790555b606861128b84826119ea565b50606961129883826119ea565b508015610725576000805461ff0019169055505050565b600054610100900460ff16806112c8575060005460ff16155b6112e45760405162461bcd60e51b815260040161040a90611924565b600054610100900460ff16158015611306576000805461ffff19166101011790555b610e7833610f8d565b8154600090810361132257506000610513565b82546000905b8082101561137e57600061133c8383611415565b905084868281548110611351576113516118cc565b9060005260206000200154111561136a57809150611378565b611375816001611911565b92505b50611328565b6000821180156113b357508385611396600185611972565b815481106113a6576113a66118cc565b9060005260206000200154145b156113cc576113c3600183611972565b92505050610513565b509050610513565b6001600160a01b0381166000908152609760209081526040808320606590925290912054610aeb9190611437565b611437565b6107c6609861140260675490565b60006114246002848418611aaa565b61143090848416611911565b9392505050565b6000611441610f82565b90508061144d84611481565b1015610725578254600180820185556000858152602080822090930193909355938401805494850181558252902090910155565b8054600090810361149457506000919050565b815482906114a490600190611972565b815481106114b4576114b46118cc565b90600052602060002001549050919050565b919050565b600060208083528351808285015260005b818110156114f8578581018301518582016040015282016114dc565b506000604082860101526040601f19601f8301168501019250505092915050565b634e487b7160e01b600052604160045260246000fd5b604051601f8201601f1916810167ffffffffffffffff8111828210171561155857611558611519565b604052919050565b600067ffffffffffffffff82111561157a5761157a611519565b5060051b60200190565b80356001600160a01b03811681146114c657600080fd5b600082601f8301126115ac57600080fd5b813560206115c16115bc83611560565b61152f565b82815260059290921b840181019181810190868411156115e057600080fd5b8286015b848110156115fb57803583529183019183016115e4565b509695505050505050565b6000806040838503121561161957600080fd5b823567ffffffffffffffff8082111561163157600080fd5b818501915085601f83011261164557600080fd5b813560206116556115bc83611560565b82815260059290921b8401810191818101908984111561167457600080fd5b948201945b838610156116995761168a86611584565b82529482019490820190611679565b965050860135925050808211156116af57600080fd5b506116bc8582860161159b565b9150509250929050565b600080604083850312156116d957600080fd5b6116e283611584565b946020939093013593505050565b60008060006060848603121561170557600080fd5b61170e84611584565b925061171c60208501611584565b9150604084013590509250925092565b600082601f83011261173d57600080fd5b813567ffffffffffffffff81111561175757611757611519565b61176a601f8201601f191660200161152f565b81815284602083860101111561177f57600080fd5b816020850160208301376000918101602001919091529392505050565b600080604083850312156117af57600080fd5b823567ffffffffffffffff808211156117c757600080fd5b6117d38683870161172c565b935060208501359150808211156117e957600080fd5b506116bc8582860161172c565b60006020828403121561180857600080fd5b61143082611584565b60006020828403121561182357600080fd5b5035919050565b6000806040838503121561183d57600080fd5b61184683611584565b915061185460208401611584565b90509250929050565b600181811c9082168061187157607f821691505b60208210810361189157634e487b7160e01b600052602260045260246000fd5b50919050565b6020808252818101527f4f776e61626c653a2063616c6c6572206973206e6f7420746865206f776e6572604082015260600190565b634e487b7160e01b600052603260045260246000fd5b634e487b7160e01b600052601160045260246000fd5b60006001820161190a5761190a6118e2565b5060010190565b80820180821115610513576105136118e2565b6020808252602e908201527f496e697469616c697a61626c653a20636f6e747261637420697320616c72656160408201526d191e481a5b9a5d1a585b1a5e995960921b606082015260800190565b81810381811115610513576105136118e2565b600081611994576119946118e2565b506000190190565b601f82111561072557600081815260208120601f850160051c810160208610156119c35750805b601f850160051c820191505b818110156119e2578281556001016119cf565b505050505050565b815167ffffffffffffffff811115611a0457611a04611519565b611a1881611a12845461185d565b8461199c565b602080601f831160018114611a4d5760008415611a355750858301515b600019600386901b1c1916600185901b1785556119e2565b600085815260208120601f198616915b82811015611a7c57888601518255948401946001909101908401611a5d565b5085821015611a9a5787850151600019600388901b60f8161c191681555b5050505050600190811b01905550565b600082611ac757634e487b7160e01b600052601260045260246000fd5b50049056fea264697066735822122068845d857bb69850e2edf5febc5a8020dbae305041faa09e54e8a7ca3ee6e96f64736f6c63430008110033"
}